:100000000C947A010C9497010C9497010C9497012D
:100010000C9499010C9497010C9497010C949701FE
:100020000C9497010C9497010C94D7010C949701B0
:100030000C9497010C9425210C94C5200C949701E5
:100040000C9497010C9497010C9497010C949701D0
:100050000C949701B71BC11BCF1BED1BF91B011C97
:10006000091C391C631C891CD71CE11CED1CF51CE8
:10007000231D771D831D8E1D9A1DA71DB21DBF1D3B
:10008000CB1DCE1DDB1DE31DF51D05A84CCDB2D447
:100090004EB93836A9020C50B9918688083CA6AAF8
:1000A000AA2ABE000000803F0706050403020100E3
:1000B0001020304050607071727374757677675796
:1000C0004737271704031221304051627374655675
:1000D00047372615303A205261696E0D0A00313AD1
:1000E0002052616E646F6D20766F78656C730D0AB7
:1000F00000323A2052616E646F6D2066696C6C65E7
:10010000720D0A00333A205A2061786973207570A5
:100110002F646F776E0D0A00343A20576F726D733B
:10012000717565657A650D0A00353A20426C696E15
:100130006B790D0A00363A20426F7865730D0A001C
:10014000373A20506C616E626F696E670D0A003835
:100150003A2054656C63207374616972730D0A00F0
:10016000393A2053757370656E642072616E646FE6
:100170006D0D0A0031303A204C6F6164206261726B
:100180000D0A0031313A20576F726D207371756519
:10019000657A650D0A0031323A20537472696E67D0
:1001A00020666C790D0A00494E5354525543544110
:1001B000424C45530031333A2047616D65206F66EC
:1001C000204C6966650D0A0031343A20466C796925
:1001D0006E6720626F7865733F0D0A0031353A20F3
:1001E000426F696E6720626F696E670D0A00313673
:1001F0003A20536D696C6579207370696E0D0A0041
:1002000031373A20506174682073706972616C0DE7
:100210000A0031383A2050617468206269746D6157
:10022000700D0A0031393A20536D696C657920737D
:1002300070696E0D0A0032303A2050617468207483
:100240006578740D0A0032313A2050617468207468
:100250006578740D0A0032323A20576F726D207340
:10026000717565657A650D0A0032333A20536D6900
:100270006C6579207370696E0D0A0032343A205231
:10028000616E646F6D20737061726B6C650D0A0036
:1002900032353A20576F726D2073717565657A65D6
:1002A0000D0A0032363A20426F696E6720626F692C
:1002B0006E670D0A004661696C0D0A004641494CA3
:1002C000004D7573696320626172730D0A004D758C
:1002D0007369632062616C6C0D0A004D757369630C
:1002E000206661696C0D0A004D5553494320464113
:1002F000494C000011241FBECFE5D8E0DEBFCDBFC2
:1003000010E0A0E6B0E0E2ECFCE402C005900D9243
:10031000A43AB107D9F712E0A4EAB0E001C01D92F7
:10032000AD38B107E1F70E947A220C945F260C9455
:1003300000001F920F920FB60F9211242F938F93EC
:100340009F93EF93FF938091290190E0019687702E
:1003500090708093290118BA87E090E09798E09117
:100360002901F0E023E0EE0FFF1F2A95E1F7E80FE7
:10037000F91FE751FF4F208125BB979A01972FEF77
:100380008F3F920759F72091290181E090E002C048
:10039000880F991F2A95E2F788BBFF91EF919F91F3
:1003A0008F912F910F900FBE0F901F9018951F9255
:1003B0000F920FB60F9211242F933F934F935F9399
:1003C0006F937F938F939F93AF93BF93EF93FF931D
:1003D000CF93DF9300D0CDB7DEB71A8219820E9487
:1003E0009D210E941E03CE010196BE016E5F7F4FCC
:1003F0000E94552289818823B1F08A81882399F04F
:100400008091A8008F5F8093A8008091A80065E08C
:100410000E9437259093A8008091A800853019F498
:1004200081E00E94FA210F900F90DF91CF91FF9110
:10043000EF91BF91AF919F918F917F916F915F915C
:100440004F913F912F910F900FBE0F901F901895D5
:100450008CE08ABB8FEF87BB84BB83EF81BB1BBA69
:1004600018BA15BA84E082BB85EE8CBF83B786606C
:1004700083BF83B7886083BF12BE89B7826089BF9C
:100480008AE083BD85B5856085BD85B5886085BDFD
:1004900014BC89B7806889BF0895CF92DF92EF922C
:1004A000FF920F931F93CF93DF93C0E0D0E0CE0174
:1004B0000E944F0488EE93E00E94C921CE010E9461
:1004C00064042196C730D10591F7CC24DD241DC0EA
:1004D000C601BE0140E050E096018E01E7E0EE2E3D
:1004E000F12C0E94240788EE93E00E94C92180E04D
:1004F0000E9414052196C830D10551F70894C11CFB
:10050000D11C88E0C816D10419F0C0E0D0E0E0CFDB
:10051000DF91CF911F910F91FF90EF90DF90CF90DF
:100520000895EF92FF920F931F93CF93DF930F9253
:10053000CDB7DEB738C080E10E9444030E94A920F5
:100540008823E1F3CE0101960E94322089818F3FFA
:1005500059F40E94A9208823E1F3CE0101960E945C
:10056000322089818823F9F08981F701A3E0EE0F19
:10057000FF1FAA95E1F7E00FF11FE755FF4F8083BA
:100580000730110569F487E0E816F10419F40E94B8
:10059000340809C00894E11CF11C00E010E007C019
:1005A0000F5F1F4F04C000E010E0EE24FF24809195
:1005B000A800853009F4BFCF0F90DF91CF911F9134
:1005C0000F91FF90EF9008958BE291E060E670E06C
:1005D0000E94CF250895CF93DF930F92CDB7DEB75A
:1005E00014C0CE0101960E9432208981E091A400BE
:1005F000F0E0E55DFE4F80838D3011F40E94E4024F
:100600008091A4008F5F8093A4000E94A92088237A
:1006100041F70F90DF91CF91089510926C0181E026
:1006200080936D0180936E01089580916C0190E03C
:1006300001968370907080936C01089590916C0185
:1006400080916E01981749F010926D0180916C01B4
:1006500080936E0180ED80936B0180916D01882302
:1006600061F480916B01815080936B0180916B01EB
:10067000882319F481E080936D0108950E947A1F08
:1006800008950E94D51F089508958830910558F463
:1006900077FD09C06830710534F457FD06C081E06C
:1006A000483051051CF080E0089580E00895EF92F5
:1006B000FF921F93CF93DF93182F7B01EA010E94D3
:1006C00045038823A1F083E0CC0FDD1F8A95E1F775
:1006D000CE0DDF1DC755DF4F288181E090E002C0BD
:1006E000880F991F1A95E2F7809582238883DF91FE
:1006F000CF911F91FF90EF900895EF92FF921F937B
:10070000CF93DF93182F7B01EA010E9445038823D2
:10071000A1F093E0CC0FDD1F9A95E1F7CE0DDF1D20
:10072000C751DF4F288181E090E002C0880F991FF8
:100730001A95E2F7809582238883DF91CF911F91EC
:10074000FF90EF900895EF92FF921F93CF93DF9366
:10075000182F7B01EA010E944503882399F023E0CA
:10076000CC0FDD1F2A95E1F7CE0DDF1DC755DF4FFA
:10077000288181E090E002C0880F991F1A95E2F766
:10078000282B2883DF91CF911F91FF90EF90089540
:10079000EF92FF921F93CF93DF93182F7B01EA0113
:1007A0000E944503882399F033E0CC0FDD1F3A9572
:1007B000E1F7CE0DDF1DC751DF4F288181E090E0CA
:1007C00002C0880F991F1A95E2F7282B2883DF9122
:1007D000CF911F91FF90EF900895EF92FF921F939A
:1007E000CF93DF93182F7B01EA010E9445038823F2
:1007F00091F043E0CC0FDD1F4A95E1F7CE0DDF1DF0
:10080000C751DF4F888190E002C0959587951A9572
:10081000E2F7817001C080E0DF91CF911F91FF90DE
:10082000EF9008952130310519F40E94C80308950E
:100830000E947D030895EF92FF921F93CF93DF9361
:10084000182F7B01EA010E944503882399F053E0A9
:10085000CC0FDD1F5A95E1F7CE0DDF1DC751DF4FDD
:10086000288181E090E002C0880F991F1A95E2F775
:1008700028272883DF91CF911F91FF90EF90089553
:10088000681779072CF4F82FE92FCB016F2F7E2FF3
:10089000FA0191838083F901718360830895883020
:1008A000910588F4FC0163E0EE0FFF1F6A95E1F704
:1008B000E751FF4F8FEF808381838283838384831B
:1008C00085838683878308958830910580F4FC01B1
:1008D00073E0EE0FFF1F7A95E1F7E751FF4F1082AB
:1008E0001182128213821482158216821782089551
:1008F0008830910530F521E030E002C0220F331F2F
:100900008A95E2F7722F40E050E012C0FC01E20F3E
:10091000F31FE751FF4F6081672B60832F5F3F4FCD
:100920002830310599F74F5F5F4F4830510549F046
:1009300020E030E0CA01E3E0880F991FEA95E1F773
:10094000E5CF08958830910538F521E030E002C008
:10095000220F331F8A95E2F7722F709540E050E026
:1009600012C0FC01E20FF31FE751FF4F60816723C4
:1009700060832F5F3F4F2830310599F74F5F5F4FFE
:100980004830510549F020E030E0CA01F3E0880F1B
:10099000991FFA95E1F7E5CF08958830910560F445
:1009A000FC01E751FF4F8FEF80838087808B808F22
:1009B00080A380A780AB80AF08958830910558F45C
:1009C000FC01E751FF4F10821086108A108E10A292
:1009D00010A610AA10AE0895982F862F993741F0CF
:1009E0009A3751F0983759F490E00E9478040895AE
:1009F00090E00E94CD04089590E00E944F04089575
:100A0000982F862F993741F09A3751F0983759F43B
:100A100090E00E94A204089590E00E94DD040895F1
:100A200090E00E946404089520E030E0F901A3E022
:100A3000EE0FFF1FAA95E1F7E751FF4F80838183F7
:100A40008283838384838583868387832F5F3F4F5D
:100A50002830310559F7089520E030E0F901B3E07E
:100A6000EE0FFF1FBA95E1F7E755FF4F80838183B3
:100A70008283838384838583868387832F5F3F4F2D
:100A80002830310559F708956F5F7F4F2FEF30E021
:100A9000A90102C0440F551F6A95E2F7BA0160959B
:100AA00002C0220F331F8A95E2F7862F8223089512
:100AB0006F927F928F929F92AF92BF92CF92DF926E
:100AC000EF92FF920F931F93CF93DF934C015B0143
:100AD0003A016901281739072CF4982F892D49010B
:100AE000C92ED82E0A151B052CF49A2D8B2D5801D2
:100AF000092F182FE614F7042CF4962D872D3701B3
:100B0000E92EF82EC401B6010E944405282FC30126
:100B1000C3E0880F991FCA95E1F7FC01EA0DFB1DA0
:100B2000E751FF4F2083FC01E00FF11FE751FF4F1A
:100B30002083C701D3E0880F991FDA95E1F7FC0104
:100B4000EA0DFB1DE751FF4F2083FC01E00FF11F71
:100B5000E751FF4F2083E50115C0C401BE01A30189
:100B60000E94C803C401BE01A7010E94C803C601B8
:100B7000BE01A3010E94C803C601BE01A7010E94D5
:100B8000C80321960C171D0744F7E30115C0C401E3
:100B9000B501AE010E94C803C401B801AE010E94B4
:100BA000C803C601B501AE010E94C803C601B80161
:100BB000AE010E94C8032196EC16FD0644F7DF91B2
:100BC000CF911F910F91FF90EF90DF90CF90BF904A
:100BD000AF909F908F907F906F9008952F923F924B
:100BE0004F925F926F927F928F929F92AF92BF923D
:100BF000CF92DF92EF92FF920F931F93CF93DF93E9
:100C000000D00F92CDB7DEB72C014B015A0139014C
:100C10006801281739072CF4982F852D2901692E92
:100C2000782EC814D9042CF4982D892D4601C92E8C
:100C3000D82EEA14FB042CF49A2D8B2D5701E92EA3
:100C4000F82E81E090E09C01062C02C0220F331F99
:100C50000A94E2F7042C02C0880F991F0A94E2F765
:100C6000282B85012CC04815590549F04C155D0508
:100C700031F00A151B0519F00E151F0589F4C20184
:100C8000B3012B8349835A830E94440549815A81C9
:100C9000F101E40FF51FE751FF4F80832B8108C05E
:100CA000F101E40FF51FE751FF4F8081822B808314
:100CB0004F5F5F4FC416D506B4F60F5F1F4FE016A7
:100CC000F10644F0A401180183E0220C331C8A953C
:100CD000E1F7F0CF0F900F900F90DF91CF911F9120
:100CE0000F91FF90EF90DF90CF90BF90AF909F90CB
:100CF0008F907F906F905F904F903F902F900895CE
:100D00002F923F924F925F926F927F928F929F921B
:100D1000AF92BF92CF92DF92EF92FF920F931F9309
:100D2000CF93DF9300D00F92CDB7DEB71C012B011C
:100D3000390148015701281739072CF4982F832DC2
:100D40001901692E782E841495042CF4942D852D88
:100D50002401892E982EA416B5062CF4942F852FE5
:100D6000A501A92EB82E6A011DC089010E0D1F1DF7
:100D700007511F4FF8014081C101B3012A833B8312
:100D800049830E9444054981842BF801808308949B
:100D9000E11CF11C3B812A818E149F0434F70894D6
:100DA000C11CD11CAC14BD0444F07201960193E047
:100DB000220F331F9A95E1F7EFCF0F900F900F900E
:100DC000DF91CF911F910F91FF90EF90DF90CF9027
:100DD000BF90AF909F908F907F906F905F904F905B
:100DE0003F902F900895282F30E0982F9295969558
:100DF0009270482F441F4427441F942B482F469538
:100E0000469546954470942B86958870982BA90139
:100E1000440F551F4071942BA90173E0440F551FD7
:100E20007A95E1F74072942BA901E5E0440F551F34
:100E3000EA95E1F74074942B3695322F22273795A7
:100E40002795892F822B08952F923F924F925F9280
:100E50006F927F928F929F92AF92BF92CF92DF92CA
:100E6000EF92FF920F931F93CF93DF93CDB7DEB72F
:100E700062970FB6F894DEBF0FBECDBF9A83898309
:100E80002B015A013C832B83B8011701281739071E
:100E90007CF48B2D5701242E382E942D852D28017E
:100EA000692F782F99818A813A8329839B838C8348
:100EB0000B811C8189819A81081B190B64157505AA
:100EC0002CF4D201A61BB70BBD0102C06419750931
:100ED000882777FD8095982F0E94C5236B017C01A0
:100EE000B801882777FD8095982F0E94C5239B0124
:100EF000AC01C701B6010E942A236D837E838F83D4
:100F0000692E8B809C80E981FA818E1A9F0A2A14AF
:100F10003B0424F4B5016219730903C0B1016A19D5
:100F20007B09882777FD8095982F0E94C5236B0148
:100F30007C01B401882777FD8095982F0E94C523F6
:100F40009B01AC01C701B6010E942A23762E072F10
:100F5000182F292FF981F88722243324C201AA27C8
:100F600097FDA095BA2F89879A87AB87BC87C50163
:100F7000AA2797FDA095BA2F8D879E87AF87B88B3C
:100F80002A8B4DC0B201A981BA816A1B7B0B8827CD
:100F900077FD8095982F0E94C5234B015C015D81F0
:100FA0004E813F81852F942FA32FB62DBC01CD01FB
:100FB000A50194010E948A246B017C0169857A85D0
:100FC0008B859C850E94C5239B01AC01C701B6019E
:100FD0000E94C3220E949723698B2A89872D902F14
:100FE000A12FB22FBC01CD01A50194010E948A243A
:100FF0006B017C016D857E858F8598890E94C52354
:101000009B01AC01C701B6010E94C3220E94972335
:10101000462FC201698970E050E00E94C8034884ED
:10102000420C55240894211C311CEB81FC81E415F1
:10103000F5050CF0A7CF62960FB6F894DEBF0FBE91
:10104000CDBFDF91CF911F910F91FF90EF90DF9077
:10105000CF90BF90AF909F908F907F906F905F9058
:101060004F903F902F900895A9EEB0E0E9EAF0E0AC
:1010700080E401900D928150E1F708954F925F92C4
:101080006F927F928F929F92BF92CF92DF92EF9258
:10109000FF920F931F93CF93DF93C82E3B018824B9
:1010A0009924B7E04B2E512C4FEF64164FEF740686
:1010B00021F07201E818F90801C07401C701019616
:1010C0009701215030404FEF64164FEF740619F42A
:1010D000B82ED92E02C0B22ED32E00E010E035C0BB
:1010E0008AE7C81659F4C801BE014B2D5D2D0E9438
:1010F000ED03282FC801BE01A7011BC049E7C41694
:1011000059F4C8016B2D7D2DAE010E94ED03282FEF
:10111000C801B701AE010DC088E7C81669F48B2D70
:101120009D2DBE01A8010E94ED03282FC701BE011D
:10113000A80130E00E9412042196C830D10581F642
:101140000F5F1F4F0830110519F0C0E0D0E0C8CF85
:101150000894811C911C48E08416910409F0A4CFE6
:101160008FEF68168FEF780621F4A7E0EA2EF12CB6
:1011700002C0EE24FF2400E010E01FC04AE7C416BE
:1011800021F4C801BE01A7010DC089E7C81621F4EA
:10119000C801B701AE0106C048E7C41629F4C7016B
:1011A000BE01A8010E947D032196C830D10531F708
:1011B0000F5F1F4F0830110519F0C0E0D0E0DECFFF
:1011C000DF91CF911F910F91FF90EF90DF90CF9023
:1011D000BF909F908F907F906F905F904F900895F9
:1011E0004F925F926F927F928F929F92AF92BF9237
:1011F000CF92DF92EF92FF920F931F93CF93DF93E3
:10120000CDB7DEB7C054D0400FB6F894DEBF0FBEE6
:10121000CDBFDE011196E9EEF0E080E401900D9281
:101220008150E1F70E9414055E010894A11CB11CD5
:10123000CC24DD2417E0612E712C30C0F2018081B6
:1012400090E00E2C02C0959587950A94E2F780FFF6
:1012500005C0C701B401A6010E94C8030894E11C9F
:10126000F11CF8E0EF16F10449F70F5F1F4F08304B
:10127000110549F0EE24FF242501400E511E4301C3
:10128000801A910ADBCF0894C11CD11C88E090E041
:10129000A80EB91E98E0C916D10419F000E010E0BC
:1012A000E9CFC05CDF4F0FB6F894DEBF0FBECDBFF5
:1012B000DF91CF911F910F91FF90EF90DF90CF9032
:1012C000BF90AF909F908F907F906F905F904F9066
:1012D0000895AF92BF92CF92DF92EF92FF920F9359
:1012E0001F93CF93DF93CDB7DEB7C054D0400FB676
:1012F000F894DEBF0FBECDBFDE011196E9EEF0E03F
:1013000080E401900D928150E1F70E9414056E0176
:101310000894C11CD11CEE24FF241CC0F601E00F70
:10132000F11F80810E94F306F501E00FF11FE751E4
:10133000FF4F80830F5F1F4F0830110579F7089426
:10134000E11CF11C88E090E0C80ED91E98E0E91677
:10135000F10449F000E010E0570183E0AA0CBB1C47
:101360008A95E1F7DBCFC05CDF4F0FB6F894DEBFA4
:101370000FBECDBFDF91CF911F910F91FF90EF90E6
:10138000DF90CF90BF90AF900895CF93DF93CDB70C
:10139000DEB7C054D0400FB6F894DEBF0FBECDBF4D
:1013A000DE011196E9EEF0E080E401900D928150AB
:1013B000E1F780E090E01AC0FB01E20FF31FA0818B
:1013C000FA01B3E0EE0FFF1FBA95E1F7E80FF91F3E
:1013D000E751FF4FA083285F3F4F415050402034DA
:1013E000310551F701968830910559F047E050E0FA
:1013F00020E030E061E070E06C0F7D1F680F791F26
:10140000DBCFC05CDF4F0FB6F894DEBF0FBECDBFA1
:10141000DF91CF9108958F929F92AF92BF92CF921A
:10142000DF92EF92FF92CF93DF93C0E0D0E0BE0156
:1014300083E0759567958A95E1F7882777FD809514
:10144000982F0E94C5236B017C010E94ED249B0113
:10145000AC010E94C32220E030E040E650E40E944C
:10146000C3220E9492234B015C01C701B6010E9476
:1014700027239B01AC010E94C32220E030E040E61C
:1014800050E40E94C3220E9492236B017C01C4019C
:10149000B60141E050E00E94C803C401B60141E03A
:1014A00050E00E94C80388EE93E00E94C92180E0CA
:1014B0000E941405219683E0C83ED80709F0B7CFF3
:1014C000DF91CF91FF90EF90DF90CF90BF90AF90E2
:1014D0009F908F9008952F923F924F925F926F92BC
:1014E0007F928F929F92BF92CF92DF92EF92FF9264
:1014F0000F931F93CF93DF9300D000D00F92CDB7FF
:10150000DEB74C01B62E60E070E04B2D0E94FD214D
:10151000CC24DD2430E8632E712C4EC0BE016F5FF9
:101520007F4F0E94141A00E010E021C093010E2C9E
:1015300002C0359527950A94E2F7F201808190E088
:10154000282339232115310531F087E090E0B101DE
:10155000A7010E94C8030894E11CF11CF8E0EF16F3
:10156000F10421F70F5F1F4F0530110579F0EE24CC
:10157000FF2491E0492E512C4C0E5D1E400E511E51
:1015800022E0222E312C200E311ED0CF06E010E0BA
:1015900088EE93E00E94C92188E76FEF7FEF0E94F9
:1015A0003E0801501040A1F70894C11CD11CC40191
:1015B000B6014B2D0E94FD21882309F0AFCF08E032
:1015C00010E088EE93E00E94C92188E76FEF7FEF7B
:1015D0000E943E0801501040A1F70F900F900F900D
:1015E0000F900F90DF91CF911F910F91FF90EF908F
:1015F000DF90CF90BF909F908F907F906F905F9083
:101600004F903F902F9008950F931F93CF93DF93A8
:10161000C82FD62F072F10E080E00E9414058C2FD2
:10162000612F0E94EC048D2F902F0E94C9211F5F13
:10163000183091F717E080E00E9414058C2F612F7D
:101640000E94EC048D2F902F0E94C921115098F711
:10165000DF91CF911F910F910895AF92BF92CF92DA
:10166000DF92EF92FF920F931F93CF93DF9380E06F
:101670000E94140502E010E046EFE42E4FEFF42E36
:1016800058EEC52E53E0D52E6FEEA62E62E0B62E94
:1016900041C080E00E941405CE010E94C9218FEF55
:1016A0000E94140584E690E00E94C921CE01B70192
:1016B0000E944325C6010E9443256F507040C60F0B
:1016C000D71F1C161D062CF388EE93E00E94C9213B
:1016D000CEEED2E080E00E941405C5018C1B9D0B6C
:1016E0000E94C9218FEF0E94140584E690E00E94B9
:1016F000C921CE01B7010E944325C6010E9443259E
:101700006F507040C60FD71F1C161D061CF30150EA
:10171000104019F0CEEED2E0BCCFDF91CF911F91F7
:101720000F91FF90EF90DF90CF90BF90AF90089512
:101730002F923F924F925F926F927F928F929F92E1
:10174000AF92BF92CF92DF92EF92FF920F931F93CF
:10175000CF93DF9300D000D0CDB7DEB73C015B0163
:101760002A011901CC24DD24E7E08E2E912CCB0137
:1017700002979A8389834EC01C821B82EB81FC8175
:10178000E830F10524F47401EE1AFF0A08C078EF7E
:10179000E72E7FEFF72E8B819C81E80EF91E80E00B
:1017A0000E94140581E090E00E94C921F89480E035
:1017B00090E060E070E040E050E0970187010E9417
:1017C00058051414150414F40E94C50991E0A916D3
:1017D000B10421F0E3E0AE16B10411F40E94F00868
:1017E00089819A818230910510F40E946909789468
:1017F000C1010E94C92180E00E941405EB81FC8197
:101800003196FC83EB83E031F10509F0B7CF089402
:10181000C11CD11CC614D7040CF4AECF0F900F908E
:101820000F900F90DF91CF911F910F91FF90EF904C
:10183000DF90CF90BF90AF909F908F907F906F90F0
:101840005F904F903F902F9008958F929F92AF920C
:10185000BF92CF92DF92EF92FF920F931F93CF939D
:10186000DF935C014B0180E00E941405C0E0D0E0F2
:10187000F3E0CF2ED12C1814190424F4C6018C1BCC
:101880009D0B01C0CE01AC014C5F5F4F7601E81AA1
:10189000F90ACA01BA01970187010E945805C501DA
:1018A0000E94C92180E00E9414052196C430D10510
:1018B00011F7DF91CF911F910F91FF90EF90DF9083
:1018C000CF90BF90AF909F908F9008956F927F922E
:1018D0009F92AF92BF92CF92DF92EF92FF920F93BF
:1018E0001F93CF93DF93F82EE62E942E390100E05C
:1018F00010E0A7E0CA2ED12CB8E0AB2EB12C87E0C7
:10190000981669F4E601C01BD10BA501401B510BD1
:101910008F2D90E06E2D70E00E947D030AC0A8011B
:10192000415050408F2D90E06E2D70E00E947D035D
:10193000E8018F2D90E06E2D70E0AE010E94C8038B
:10194000C3010E94C9210F5F1F4F08301105B9F66E
:10195000DF91CF911F910F91FF90EF90DF90CF908B
:10196000BF90AF909F907F906F900895AF92BF927D
:10197000CF92DF92EF92FF920F931F93CF93DF935B
:10198000C82F6B015A0180E00E9414058C2F90E053
:101990000E944F0411E1D4E0ED2EF12C1FC00E94F3
:1019A000BF25B7010E944325D82F0E94BF25B7014C
:1019B0000E944325082F8D2F90E0602F70E04C2F60
:1019C00050E00E94ED03882351F38D2F602F4C2FA0
:1019D00096010E94660CC5010E94C9211150F9F6BA
:1019E000DF91CF911F910F91FF90EF90DF90CF90FB
:1019F000BF90AF9008952F923F924F925F926F9257
:101A00007F928F929F92AF92BF92DF92EF92FF925E
:101A10000F931F93CF93DF931C013B012A0180E0BA
:101A20000E94140500E010E032E0E32EF12C1AC011
:101A30000E94BF25B7010E944325AC0123E0440F5B
:101A4000551F2A95E1F7481B590BC801BE010E949A
:101A5000C8032196C830D10559F70F5F1F4F0830D2
:101A6000110589F1C0E0D0E0E3CF0E94BF254C0111
:101A70000E94BF25B5010E944325C82FF82E8E1560
:101A800001F1C401B5010E944325D82F182F8D15EF
:101A9000C1F090E06C2F70E040E050E00E94ED0358
:101AA000882321F08D2F6C2F40E003C08D2F6C2FE9
:101AB00047E093010E94660CC2010E94C921EF2CED
:101AC000D12E0F5F06C000E0EE24DD2418E0A12E29
:101AD000B12C802F90E0821593053CF2DF91CF91DD
:101AE0001F910F91FF90EF90DF90BF90AF909F906C
:101AF0008F907F906F905F904F903F902F900895C0
:101B00002F923F924F925F926F927F928F929F920D
:101B1000AF92BF92CF92DF92EF92FF920F931F93FB
:101B2000CF93DF93CDB7DEB7E8970FB6F894DEBF5B
:101B30000FBECDBF9CAB8BAB7EAB6DAB622E80E09E
:101B40000E9414050E94BF2508E010E0B8010E9421
:101B50004325B82EA92E482E592E0E94BF25B80124
:101B60000E944325E82EC92E282E392E0E94BF251B
:101B7000B8010E9443254C019E012F5C3F4F3AABB8
:101B800029ABFE013196E082C182B282A3828483B6
:101B90009583369629A93AA9E217F307A1F701E040
:101BA00010E081E0E82EF12C91E0C92ED12C21E04B
:101BB00030E02C0F3D1F2C50304038AF2FAB5AC2B5
:101BC0000E94BF2563E070E00E944325009769F5FD
:101BD0000E94BF2563E070E00E944325009759F4FE
:101BE0000E94BF2563E070E00E9443256C010894C9
:101BF000C108D1081AC08130910559F40E94BF254F
:101C000063E070E00E9443257C010894E108F1083C
:101C10000CC08230910549F40E94BF2563E070E05A
:101C20000E9443258C01015010403FEFC3163FEF47
:101C3000D30691F42114310479F40E94BF2563E0A6
:101C400070E00E944325772473948130910531F42C
:101C5000B1E0CB2ED12C04C0772402C0CC24DD24EB
:101C60008FEFE8168FEFF80691F44114510479F4E0
:101C70000E94BF2563E070E00E944325AA24A3943C
:101C80008130910531F4A1E0EA2EF12C04C0AA24A0
:101C900002C0EE24FF249FEF0F3F190789F481143F
:101CA000910471F40E94BF2563E070E00E94432517
:101CB000BB24B3948130910529F401E010E004C005
:101CC000BB2402C000E010E0E1E0CE16D104A9F48C
:101CD000F7E02F16310489F40E94BF2563E070E01D
:101CE0000E944325772473948130910521F4CC24FC
:101CF000CA94DC2C02C0CC24DD2421E0E216F104DD
:101D0000A9F437E04316510489F40E94BF2563E02B
:101D100070E00E944325AA24A3948130910521F408
:101D2000EE24EA94FE2C02C0EE24FF2401301105BB
:101D3000A1F487E08816910481F40E94BF2563E036
:101D400070E00E944325BB24B3948130910519F4BF
:101D50000FEF1FEF02C000E010E0772041F1E11427
:101D6000F10491F497E04916510439F041145104FB
:101D700041F00E94BF2580FD04C0EE24EA94FE2CB1
:101D800003C0F1E0EF2EF12C0115110581F4E7E01D
:101D90008E16910439F08114910439F00E94BF2508
:101DA00080FD03C00FEF1FEF02C001E010E0AA208A
:101DB00041F1C114D10491F4F7E02F16310439F048
:101DC0002114310441F00E94BF2580FD04C0CC24C1
:101DD000CA94DC2C03C0E1E0CE2ED12C01151105F4
:101DE00081F423E08216910439F08114910439F0D2
:101DF0000E94BF2580FD03C00FEF1FEF02C001E06E
:101E000010E0BB2021F1E114F10491F437E0431616
:101E1000510439F04114510441F00E94BF2580FD66
:101E200004C0EE24EA94FE2C03C071E0E72EF12CEE
:101E3000C114D10461F487E02816310469F121143A
:101E4000310449F00E94BF2580FF1AC15DC02114F2
:101E50003104E9F403C061E0C62ED12C41145104D1
:101E600049F48114910489F197E08916910409F0ED
:101E700046C02BC0E7E04E16510409F040C0811463
:101E8000910419F1F7E08F169104C9F51EC027E0FF
:101E90002216310421F03BC0CC24CA94DC2C41141E
:101EA000510441F48114910481F037E083169104C8
:101EB00089F50BC087E048165104A1F581149104FF
:101EC00021F097E08916910469F50E94BF2563E02F
:101ED00070E00E944325009739F08130910539F078
:101EE0008230910539F008C0CC24DD2405C0EE24F1
:101EF000FF2402C000E010E02114310441F4EFEFB0
:101F0000CE16EFEFDE0619F451E0C52ED12C4114A8
:101F1000510441F4FFEFEF16FFEFFF0619F441E023
:101F2000E42EF12C8114910431F42FEF0F3F1207AE
:101F300011F401E010E037E02316310439F481E0B8
:101F4000C816D10419F4CC24CA94DC2C97E04916A5
:101F5000510439F4E1E0EE16F10419F4EE24EA94A8
:101F6000FE2CF7E08F16910429F40130110511F4CD
:101F70000FEF1FEF2C0C3D1C4E0C5F1C800E911EB2
:101F800021E0621679F4C101B201A4010E94C803E4
:101F90008DA99EA90E94C921C101B201A4010E947C
:101FA0007D0363C032E0631651F4C101B201A401A4
:101FB0000E941B048DA99EA90E94C92156C083E0DE
:101FC000681609F052C0FE01B59680819181978311
:101FD000868382819381918780878481958193878D
:101FE000828736972FA938ADE217F30771F73A8247
:101FF00029825C824B829E828D825E010894A11CA4
:10200000B11CC501570178018C01F801628173810F
:1020100044815581808191810E94C8030A5F1F4FCE
:1020200029A93AA90217130781F7870175018DA91C
:102030009EA90E94C9215E010894A11CB11CC50182
:10204000570178018C01F8016281738144815581C7
:10205000808191810E947D030A5F1F4F29A93AA9BF
:102060000217130781F7870175018BA99CA90197B6
:102070009CAB8BABEBA9FCA9309709F0A1CD04C0B8
:10208000CC24CA94DC2C43CFE8960FB6F894DEBF7C
:102090000FBECDBFDF91CF911F910F91FF90EF90B9
:1020A000DF90CF90BF90AF909F908F907F906F9078
:1020B0005F904F903F902F9008952F923F924F92B4
:1020C0005F926F927F928F929F92AF92BF92CF92C8
:1020D000DF92EF92FF920F931F93CF93DF931C0138
:1020E0007B016130710549F480E00E941405CC2425
:1020F000DD2428E0A22EB12C02C08FEFF6CF0E9483
:10210000BF25B5010E944325EC01582E4D2E0E949B
:10211000BF25B5010E944325182F092F38010E94C1
:10212000BF25B5010E944325AC01982E852EE114F0
:10213000F10441F4CE01612F702F0E94ED03813034
:10214000D9F40BC081E0E816F104B1F4CE01612F9F
:10215000702F0E94ED03882379F4852D942D672D2F
:10216000762D492D582D97010E941204C1010E941D
:10217000C9210894C11CD11C8FEFC81681E0D80674
:102180000CF4BDCFDF91CF911F910F91FF90EF9095
:10219000DF90CF90BF90AF909F908F907F906F9087
:1021A0005F904F903F902F9008956F927F928F9203
:1021B0009F92AF92BF92CF92DF92EF92FF920F93D6
:1021C0001F93CF93DF934C0100E010E034E0632EC7
:1021D000712C48E0C42ED12C2DC00E94BF25B30124
:1021E0000E9443255C01C0E0D0E016C00E94BF25DC
:1021F0007C010E94BF259C01C701B6010E944325B6
:10220000FC01C901B6010E944325BC01CF0147E092
:1022100050E00E94C8032196CA15DB053CF388EE06
:1022200093E00E94C9218AE76FEF7FEF0E943E088A
:102230000F5F1F4F0815190584F2DF91CF911F9191
:102240000F91FF90EF90DF90CF90BF90AF909F9055
:102250008F907F906F9008956F927F928F929F9250
:10226000AF92BF92CF92DF92FF920F931F93CF93C3
:10227000DF9300D0CDB7DEB7F82E4A0180E0698346
:102280007A830E9414056981C62E7A81D72E00E0D8
:1022900010E067E0A62EB12C32C0F601E60DF71D66
:1022A0008114910429F08081A501481B510902C0C5
:1022B000408150E08AE7F81619F4C801B3010DC057
:1022C00099E7F91621F4C801BA01A30106C0E8E7AD
:1022D000FE1629F4CA01B301A8010E94C80308949C
:1022E000611C711CF8E06F167104B9F60F5F1F4F87
:1022F00088E090E0C80ED91E0830110519F0662458
:102300007724CBCF0F900F90DF91CF911F910F913A
:10231000FF90DF90CF90BF90AF909F908F907F9075
:102320006F9008952F923F924F925F927F928F927B
:102330009F92AF92BF92CF92DF92EF92FF920F9354
:102340001F93CF93DF93CDB7DEB7C058D0400FB601
:10235000F894DEBF0FBECDBF782E4B011A012901C4
:102360007E010894E11CF11C71E4C72ED12CCC0E27
:10237000DD1E00E010E0E8E0AE2EB12CF601119277
:102380006F010E94BF25B5010E944325F70181938B
:102390007F010F5F1F4F0034110581F708E010E047
:1023A00018C020813D91231710F42F5F20830196E0
:1023B000319680349105A9F7872DBE016F5B7F4F61
:1023C000A2010E942C11C4010E94C9210150104099
:1023D00041F0DE011196FE01EF5BFF4F80E090E0DF
:1023E000E0CFFE01319680E090E027E02193019656
:1023F00080349105D9F7C1010E94C92108E010E09D
:102400001DC020813D91231710F42F5F2083208170
:10241000321710F4215020830196319680349105B3
:1024200081F7872DBE016F5B7F4FA2010E942C11A7
:10243000C4010E94C9210150104041F0DE011196F3
:10244000FE01EF5BFF4F80E090E0DBCFC058DF4F35
:102450000FB6F894DEBF0FBECDBFDF91CF911F91B5
:102460000F91FF90EF90DF90CF90BF90AF909F9033
:102470008F907F905F904F903F902F900895CF93D3
:10248000DF93482FE82FF92FDB0120E030E0808137
:10249000ED015C91851710F48F5F80838081119628
:1024A0005881581710F4815080832F5F3F4F319629
:1024B0002034310561F78AE7642F792F40E050E03E
:1024C0000E942C11DF91CF9108952F923F924F924D
:1024D0005F926F927F928F929F92AF92BF92CF92B4
:1024E000DF92EF92FF920F931F93CF93DF93CDB7BD
:1024F000DEB7C058D0400FB6F894DEBF0FBECDBFD8
:102500001C014B0111E4E12EF12CEC0EFD1E6E01BD
:102510000894C11CD11C00E010E024E0B22E38E089
:10252000632E712CF701B1927F010E94BF25B30188
:102530000E944325F60181936F010F5F1F4F003406
:10254000110581F708E010E0D82CC92CCE018F5B73
:102550009F4FBE016F5F7F4F4AE70E943F128D2D54
:102560009C2D0E94C9210150104081F73401660C56
:10257000771C660C771CEE24FF24A8E0AA2EB12C51
:10258000B0E44B2E512C33C008E010E0CE018F5B3D
:102590009F4FBE016F5F7F4F4AE70E943F128D2D14
:1025A0009C2D0E94C9210150104081F7C3010E9457
:1025B000C92100E210E00E94BF254C010E94BF2506
:1025C0009C01C401B2010E944325FC0181E090E01E
:1025D0008C0F9D1FE80FF91FC901B5010E9443250B
:1025E00080830150104039F70894E11CF11CE2147B
:1025F000F30454F2C058DF4F0FB6F894DEBF0FBE9D
:10260000CDBFDF91CF911F910F91FF90EF90DF90A1
:10261000CF90BF90AF909F908F907F906F905F9082
:102620004F903F902F9008952F923F924F925F923C
:102630006F927F929F92AF92BF92CF92DF92EF9272
:10264000FF920F931F93CF93DF93CDB7DEB7C058A0
:10265000D0400FB6F894DEBF0FBECDBF982E1B0141
:102660002A015901FE01319680E090E01192019615
:1026700080349105D9F700E010E040E4642E712C1D
:10268000CC24C39457E0D52E31E0A316B104B1F4A5
:10269000003411052CF50E94BF25B3010E9443258B
:1026A000FC0181E090E08C0F9D1FE80FF91F8081F5
:1026B000882389F70F5F1F4FC08212C092E0A916CE
:1026C000B10471F4003411055CF4E1E0F0E0EC0FCA
:1026D000FD1FE00FF11F80818F5F80830F5F1F4F11
:1026E000FE013196EE24FF2480E090E0DF0120819E
:1026F000322F3150363010F42F5F208331962C91D9
:10270000273019F40894E11CF11C019680349105DE
:1027100069F7FE01EF5BFF4FDE01119680E090E06C
:102720002C912114310419F03D2D321B232F2083CD
:102730000196119631968034910591F7C2010E945D
:10274000C921892DBE016F5B7F4F40E050E00E94A0
:102750002C1180E10E94440380E4E816F10409F0A2
:1027600093CFC058DF4F0FB6F894DEBF0FBECDBF7A
:10277000DF91CF911F910F91FF90EF90DF90CF905D
:10278000BF90AF909F907F906F905F904F903F90E1
:102790002F900895DF92EF92FF920F931F93CF93A4
:1027A000DF938C0180E00E941405C0E0D0E0DD24BE
:1027B000DA947801FE01A3E0EE0FFF1FAA95E1F77E
:1027C000E751FF4FD082D182D282D382D482D58288
:1027D000D682D782C7010E94C9212196C830D1056F
:1027E00049F7C801880F991F800F911F0E94C921C6
:1027F000C0E0D0E0FE0163E0EE0FFF1F6A95E1F755
:10280000E751FF4F108211821282138214821582C7
:1028100016821782C7010E94C9212196C830D105AE
:1028200049F7DF91CF911F910F91FF90EF90DF90CB
:1028300008954F925F926F927F928F929F92AF9284
:10284000BF92CF92DF92EF92FF920F931F93CF939D
:10285000DF934C013B012A0100E010E0B8E0EB2ED1
:10286000F12C2BC00E94BF256C010E94BF255C018A
:102870000E94BF259C01C601B7010E944325FC01AF
:10288000C501B7010E9443256C01C901B7010E942F
:102890004325AC01CF01B6010E94C803219602C0B6
:1028A000C0E0D0E06C167D06ECF6C2010E94C921A2
:1028B00080E00E9414050F5F1F4F0815190584F36F
:1028C000DF91CF911F910F91FF90EF90DF90CF900C
:1028D000BF90AF909F908F907F906F905F904F9040
:1028E0000895CF93DF93C1E0D0E085E090E0BE0192
:1028F00048EC50E00E9419142196C431D105A9F783
:1029000085E090E0BE0148EC50E00E941914219748
:10291000B9F7DF91CF910895CF93DF93EC019C013C
:1029200080E090E014C02830310574F488309105BF
:102930005CF4F90173E0EE0FFF1F7A95E1F7E80F01
:10294000F91FE751FF4F6083019621503040C817AF
:10295000D9074CF7CA010E94C921CE01DF91CF915E
:1029600008950F931F93CF93DF938B01EA01009794
:1029700051F080E190E0BE01A8010E948C14019703
:1029800097FFF9CF0AC080E090E0BE01A8010E9445
:102990008C14019680319105C4F3DF91CF911F9182
:1029A0000F9108952F923F924F925F926F927F9274
:1029B0008F929F92AF92BF92CF92DF92EF92FF924F
:1029C0000F931F93CF93DF93CDB7DEB760970FB60A
:1029D000F894DEBF0FBECDBF9A8389837C836B835F
:1029E0005E834D8338872F831A8709872FEF4F3FE8
:1029F000520719F04424552403C0F7E04F2E512C00
:102A0000E9E0AE2EB12C89819A81A81AB90A0E94F8
:102A1000BF25B5010E9443253C010E94BF25B50199
:102A20000E9443254C01222433247DC00E94BF25EF
:102A30008C010E94BF2563E070E00E9443259C0149
:102A400021503040C80163E070E00E9443250197A7
:102A5000860D971D1816190624F48A159B050CF48B
:102A60003C01C401820F931F1816190624F48A151D
:102A70009B050CF44C018B816D817E810E943E0888
:102A8000630100E010E03E862D86150129813A8120
:102A90002DC00A37110521F4C601B501A20110C0ED
:102AA0000937110521F4C601B201A50109C0083793
:102AB000110541F4A701460D571DC2016B857C85A8
:102AC0000E94C8030894E11CF11C0894A11CB11CCD
:102AD000E981FA81EE16FF06E4F284018F8498887A
:102AE0009F010F5F1F4F0894C11CD11C02171307D1
:102AF00084F45401EE24FF24C801880D991D9C879D
:102B00008B87988A8F8648013A8329830B811C81A1
:102B1000DFCF51012D843E8489859A850E94C92189
:102B20000894211C311CEF81F8852E163F060CF409
:102B30007DCF60960FB6F894DEBF0FBECDBFDF919C
:102B4000CF911F910F91FF90EF90DF90CF90BF90AA
:102B5000AF909F908F907F906F905F904F903F903D
:102B60002F9008952F923F924F925F926F927F9293
:102B70008F929F92AF92BF92CF92DF92EF92FF928D
:102B80000F931F93CF93DF93CDB7DEB7AB970FB6FD
:102B9000F894DEBF0FBECDBF9BA78AA76EA37FA30D
:102BA0004DA3DE011196EBE7F0E080E201900D927B
:102BB0008150E1F719A618A69E012F5F3F4F3AA357
:102BC00029A3AEC147E0442E512C00E010E022249E
:102BD00033240F5F1F4F2114310441F404301105D9
:102BE00029F400E010E031E0232E312C3801B3E06D
:102BF000660C771CBA95E1F727E0C22E8824992449
:102C000029A13AA1261937093CA32BA381E090E022
:102C10008C0F9D1F680E791E580128C08DA16C2D48
:102C2000402F0E94661A882391F02114310429F460
:102C3000F301E00FF11F608105C0EBA1FCA1EE0DD7
:102C4000FF1D6789C80170E0A4010E94C8030F5FDF
:102C50001F4F0894E108F108E114F104F9F6089413
:102C6000811C911CCA949FEFC91631F0A8E0EA2E8E
:102C7000F12C00E010E0D2CF85018EA19FA10E942F
:102C8000C92180E00E9414050894410851084114AC
:102C9000510409F09ECFF7E04F2E512C00E010E0D8
:102CA000222433240F5F1F4F2114310441F40430D8
:102CB000110529F400E010E0E1E02E2E312C38015E
:102CC00063E0660C771C6A95E1F777E0B72E8824FD
:102CD000992429A13AA1261937093CA32BA381E005
:102CE00090E08C0F9D1F680E791E680129C08DA190
:102CF0006B2D4E2D0E94661A882391F02114310409
:102D000029F4F301EE0DFF1D808105C0EBA1FCA1AC
:102D1000E00FF11F808D90E0B801A4010E94C8036C
:102D20000894E11CF11C0150104098E0E916F104F0
:102D3000F1F60894811C911CBA942FEFB21629F079
:102D400007E010E0EE24FF24D2CF86018EA19FA1E0
:102D50000E94C92180E00E9414050894410851088E
:102D60004114510409F09ECF57E0452E512C00E04C
:102D700010E0222433240F5F1F4F2114310441F44B
:102D80000430110529F400E010E041E0242E312C3C
:102D9000380123E0660C771C2A95E1F737E0C32E53
:102DA0008824992429A13AA1261937093CA32BA3E9
:102DB00081E090E08C0F9D1F680E791E580128C09D
:102DC0008DA16C2D4E2D0E94661A882391F021143E
:102DD000310429F4F301E00FF11F608105C0EBA17C
:102DE000FCA1EE0DFF1D608DC80170E0A4010E94E2
:102DF000C8030F5F1F4F0894E108F1080830110560
:102E0000F9F60894811C911CCA949FEFC91631F001
:102E100097E0E92EF12C00E010E0D2CF85018EA1E1
:102E20009FA10E94C92180E00E94140508944108D6
:102E300051084114510409F09ECF87E0482E512CCF
:102E4000EE24FF24222433240894E11CF11C2114D5
:102E5000310449F424E0E216F10429F4EE24FF24BD
:102E600001E0202E312C3701B3E0660C771CBA95B7
:102E7000E1F717E0C12EAA24BB2429A13AA1261903
:102E800037093CA32BA381E090E08C0F9D1F680EB7
:102E9000791E47012AC08DA16C2D402F0E94661A11
:102EA000882399F02114310431F4F301EE0DFF1D54
:102EB0003197808105C0EBA1FCA1E00FF11F808D4F
:102EC00090E0B801A5010E94C8030894E11CF11C20
:102ED000015010409FEF0F3F1907E9F60894A11C1D
:102EE000B11CCA942FEFC21631F007E010E0A1E048
:102EF000EA2EF12CD0CF74018EA19FA10E94C9218E
:102F000080E00E94140508944108510841145104BE
:102F100009F09ACF28A539A52F5F3F4F39A728A7D9
:102F200028A539A58AA59BA5281739070CF44ACEF0
:102F3000AB960FB6F894DEBF0FBECDBFDF91CF9139
:102F40001F910F91FF90EF90DF90CF90BF90AF90C7
:102F50009F908F907F906F905F904F903F902F90B9
:102F60000895AF92BF92CF92DF92EF92FF920F93AC
:102F70001F93CF93DF936C01EB0128C000E010E0BA
:102F80007601EC0EFD1E57010894A108B108F50169
:102F90006081862F82958F7070E06F70707090E006
:102FA000A8010E94ED03282FF7016081862F8295EA
:102FB0008F7070E06F70707090E0A80130E00E9438
:102FC00012040F5F1F4F0830110509F721971C16D7
:102FD0001D06A4F2C0E0D0E0F6016081862F829544
:102FE0008F7070E06F70707090E0AE010E947D0392
:102FF0002196C830D10581F7DF91CF911F910F91B4
:10300000FF90EF90DF90CF90BF90AF9008954F92D8
:103010005F926F927F928F929F92BF92CF92DF9238
:10302000EF92FF920F931F93CF93DF93CDB7DEB74D
:103030006C970FB6F894DEBF0FBECDBF4C013B01BD
:1030400080E07E010894E11CF11CB7014CE150E0E6
:103050000E94FD19CC24DD2404E010E0E3E04E2EB4
:10306000512CBE2CEF2C26C00E94BF25B2010E941D
:1030700043250197080F191F083011051CF417FD8F
:1030800004C005C007E010E002C000E010E08B2D96
:103090009E2D6CE170E00E94B11780E090E067E047
:1030A00070E0A8010E94C803C3010E94C9210894CE
:1030B000C11CD11CC814D904BCF26C960FB6F8948C
:1030C000DEBF0FBECDBFDF91CF911F910F91FF905B
:1030D000EF90DF90CF90BF909F908F907F906F90F8
:1030E0005F904F9008956F927F928F929F92AF92D0
:1030F000BF92DF92EF92FF920F931F93CF93DF93D4
:10310000CDB7DEB760970FB6F894DEBF0FBECDBF68
:103110005C014B0181E07E010894E11CF11CB701C8
:1031200040E150E00E94FD1900E010E0F8E06F2E51
:10313000712CDE2CEF2C16C0C801B3010E94432570
:10314000AC0184E090E060E070E00E94C803C4013C
:103150000E94C9218D2D9E2D6CE170E00E94B11757
:103160000F5F1F4F0A151B053CF360960FB6F894CE
:10317000DEBF0FBECDBFDF91CF911F910F91FF90AA
:10318000EF90DF90BF90AF909F908F907F906F9067
:1031900008952F923F924F925F926F927F928F92FB
:1031A0009F92AF92BF92CF92DF92EF92FF920F93D6
:1031B0001F93CF93DF93CDB7DEB7A1970FB6F894E7
:1031C000DEBF0FBECDBFD82EE92E3B01C42E80E05E
:1031D000BE016A5F7F4F4CE150E00E94FD19C301C0
:1031E00060E070E04C2D0E94FD21FF24A7E04A2EF4
:1031F000512C52C0BE016F5F7F4F0E94141A4E01C6
:103200000894811C911CAA24BB24F40121904F0135
:1032100000E010E03324C201801B910B910102C039
:10322000359527958A95E2F720FF08C080E090E069
:1032300067E070E0A8010E94C80307C080E090E04A
:1032400067E070E0A8010E947D030F5F1F4F083008
:10325000110509F7CE0106966CE170E00E94B117E6
:103260008D2D9E2D0E94C9210894A11CB11C35E012
:10327000A316B10451F6CE0106966CE170E00E94EF
:10328000B1178D2D9E2D0E94C921F394C3016F2D7E
:1032900070E04C2D0E94FD21882309F0ABCF0CE19A
:1032A00010E0CE0106966CE170E00E94B1178D2D02
:1032B0009E2D0E94C9210150104099F7A1960FB68A
:1032C000F894DEBF0FBECDBFDF91CF911F910F915C
:1032D000FF90EF90DF90CF90BF90AF909F908F9036
:1032E0007F906F905F904F903F902F9008956F92D6
:1032F0007F929F92AF92BF92CF92DF92EF92FF9216
:103300000F931F93CF93DF93CDB7DEB76C970FB6B4
:10331000F894DEBF0FBECDBF6C01962E3A0180E05F
:10332000BE016F5F7F4F4CE150E00E94FD19AA245F
:10333000BB243EC0892D612F402F0E94661A88232E
:1033400041F080E090E067E070E0A7010E94C803D0
:1033500007C080E090E067E070E0A7010E947D0375
:103360000894E11CF11C115028F7C6010E94C921E4
:10337000CE0101966CE170E00E94B1170F5F08303A
:1033800011F405C000E017E0EE24FF24D3CF04E1E0
:1033900010E0C6010E94C921CE0101966CE170E0E7
:1033A0000E94B11701501040A1F70894A11CB11C54
:1033B000A614B7043CF30AE010E0C6010E94C9213C
:1033C000CE0101966CE170E00E94B11701501040EF
:1033D000A1F76C960FB6F894DEBF0FBECDBFDF919C
:1033E000CF911F910F91FF90EF90DF90CF90BF9002
:1033F000AF909F907F906F900895813019F020E0FA
:1034000030E002C02CE130E0DB0180E090E008C059
:10341000FC01E20FF31FE855FF4FE491ED93019695
:1034200084179507ACF30895EF92FF920F931F93C3
:10343000CF93DF930F92CDB7DEB7805290E07C013F
:10344000EE0CFF1CEE0CFF1CE80EF91E8B0120E0B9
:10345000C7018E5C9F4F29830E94FB25F801819351
:103460008F0129812F5F0894E11CF11C253081F721
:103470000F90DF91CF911F910F91FF90EF900895E2
:10348000EF92FF920F931F93CF93DF93C82FD0E05B
:1034900033E0CC0FDD1F3A95E1F77B0100E010E04F
:1034A000CE5FDF4FCE01800F911F0E94FB25F701F9
:1034B00081937F010F5F1F4F0830110599F7DF914E
:1034C000CF911F910F91FF90EF900895CF93DF93CD
:1034D0000F92CDB7DEB790E053E0880F991F5A9551
:1034E000E1F7860F911D8E5F9F4F49830E94FB2558
:1034F00090E0498102C0959587954A95E2F78170E1
:103500000F90DF91CF9108952F923F924F925F924B
:103510007F928F929F92AF92BF92CF92DF92EF9263
:10352000FF920F931F93CF93DF9300D000D0CDB7BE
:10353000DEB72C011B019A01EE24EA94FE2CDD2457
:10354000E8E0AE2EB12C3FC0E114F10439F40115CE
:10355000110521F48B819C810097A1F08B819C81C6
:10356000820F931FB5010E944325AC01882D972D32
:103570006C2D792D29833A830E94ED0329813A81AC
:103580008111D394EB81FC813196FC83EB83E23093
:10359000F105D1F60F5F1F4F0230110569F0C80128
:1035A000820D931DB5010E944325C82E992E8FEFE1
:1035B0009FEF9C838B83C8CF0894E11CF11C92E0A1
:1035C000E916F10459F0C701840D951DB5010E945B
:1035D0004325882E792E0FEF1FEFE1CF8D2D0F9011
:1035E0000F900F900F90DF91CF911F910F91FF904F
:1035F000EF90DF90CF90BF90AF909F908F907F9093
:103600005F904F903F902F900895CF92DF92EF926E
:10361000FF921F93CF93DF9380E00E942C05CC2470
:10362000DD2433C0C601B701AE010E94841A182FF1
:10363000C601B701AE010E94ED03813051F4C6010D
:10364000B701AE01123010F0143040F00E94570361
:1036500007C0133029F4C601B701AE010E94A303CD
:103660002196C830D105F1F60894E11CF11C88E0E0
:10367000E816F10419F0C0E0D0E0D4CF0894C11CE2
:10368000D11C88E0C816D10419F0EE24FF24F3CF32
:10369000DF91CF911F91FF90EF90DF90CF90089531
:1036A000CF9320E030E040E050E018C0BD01680F4B
:1036B000791FFB01E755FF4FC081FB01E751FF4F29
:1036C0006081C61711F04F5F5F4F019688309105FA
:1036D00069F72F5F3F4F2830310549F080E090E0D7
:1036E000D901F3E0AA0FBB1FFA95E1F7DFCFCA01BA
:1036F000CF910895EF92FF920F931F93CF93DF9393
:103700007C018B01C0E0D0E00FC080E20E94440346
:103710000E94051B0E94501B009749F00E9434082C
:10372000C8010E94C9212196CE15DF0574F3DF91EF
:10373000CF911F910F91FF90EF900895CF92DF925C
:10374000EF92FF920F931F93CF93DF93EC0180E0F2
:103750000E941405CB31D10508F055C2FE01E65D8B
:10376000FF4FEE0FFF1F0590F491E02D099484EDBB
:1037700090E061E00E943E0384E690E00E94D51054
:103780004CC28EED90E061E00E943E0384E190E047
:103790006CED70E040ED57E00E94FB0C3EC281EF03
:1037A00090E061E00E943E0385E090E061E070E01F
:1037B0000E945D1085E090E060E070E00E945D1086
:1037C00085E090E061E070E00E945D1085E090E0AF
:1037D00060E070E00E945D1020C284E091E061E052
:1037E0000E943E0384E190E068EE73E00E9465125F
:1037F00014C288E191E061E00E943E0382E090E023
:10380000E9C189E291E061E00E943E030E942D0B34
:1038100004C285E391E061E00E943E03C0E0D0E095
:10382000BE0163707070AE014470507081E090E032
:1038300022EC31E00E94980B2196C830D10581F727
:1038400080E293E060E070E00E94250C80E293E06B
:1038500061E070E00E94250C80E293E060E070E09F
:103860000E94250C80E293E061E070E00E94250C4C
:10387000D4C180E491E061E00E943E038AE790E0D9
:1038800060E971E00E94040B88E790E060E971E074
:103890000E94040B89E790E060E971E00E94040B4C
:1038A0008AE790E060E971E00E94040B88E790E00D
:1038B00060E971E00E94040B89E790E060E971E043
:1038C0000E94040BAAC18FE491E061E00E943E03D4
:1038D00080E090E060E273E04FEF50E00E94B114AE
:1038E00080E090E060E273E040E050E00E94B114BC
:1038F00081E090E060E273E04FEF50E00E94B1148D
:1039000081E090E060E273E04FEF50E00E94B1147C
:1039100084C180E691E061E00E943E038AE766E2AE
:1039200072E048E853E120E030E00E9492118AE71B
:1039300066E272E048E853E121E030E00E94921133
:103940008AE766E272E048E853E120E030E00E9456
:1039500092118AE766E272E048E853E121E030E044
:103960000E94921188E766E272E048E853E120E0A5
:1039700030E00E94921188E766E272E048E853E185
:1039800021E030E00E94921189E766E272E048E8A7
:1039900053E120E030E00E94921189E766E272E094
:1039A00048E853E121E030E00E94921136C184E7FB
:1039B00091E061E00E943E038CEB92E00E94CA130A
:1039C0002CC183E891E061E00E943E0381E090E039
:1039D0006AE770E041E050E001C186E991E061E012
:1039E0000E943E0387EA91E015C185EB91E061E01A
:1039F0000E943E03C4E1D0E004E010E00E94BF2535
:103A00007C010E94BF256C010E94BF259C01C7015B
:103A1000B8010E944325FC01C601B8010E9443255C
:103A20007C01C901B8010E944325AC01CF01B70157
:103A30000E94C803219711F784E190E060E971E0EA
:103A40000E947A1BEAC088EC91E061E00E943E038C
:103A50008AE760E070E048EC50E021E030E00E944E
:103A600014138CED95E00E94C9218AE761E070E0B3
:103A700048EC50E021E030E00E9414138CED95E01A
:103A80000E94C9218AE760E070E048EC50E022E043
:103A900030E00E9414138CED95E00E94C9218AE762
:103AA00061E070E048EC50E022E030E00E94141346
:103AB0008CED95E00E94C92189E760E070E048EC58
:103AC00050E021E030E00E9414138CED95E00E945C
:103AD000C92189E761E070E048EC50E021E030E086
:103AE0000E9414138CED95E00E94C92196C08CEDC4
:103AF00091E061E00E943E038AEF90E068E572E0A9
:103B000041E022E07DC08EEE91E061E00E943E0344
:103B100082E090E068EE73E040E04AC080E092E02E
:103B200061E00E943E0384E690E064EF71E00E9451
:103B3000731873C082E192E061E00E943E038CEB57
:103B400092E062E043E050E00E94771966C084E2B0
:103B500092E061E00E943E0382E090E068EE73E054
:103B600041E026C086E392E061E00E943E0388EED9
:103B700093E06BE970E040E00E94C9184EC086E413
:103B800092E061E00E943E0388EC90E064EF71E017
:103B90000E94071842C086E592E017C089E692E0CD
:103BA00061E00E943E0382E090E068EE73E042E054
:103BB0000E94B21532C08BE792E061E00E943E03A2
:103BC0000E9471142AC080E992E061E00E943E03E5
:103BD00081E090E06AE770E04FEF5FEF24E630E0CD
:103BE00008EE13E00E94D21418C083EA92E061E06C
:103BF0000E943E038AEF90E068E572E041E023E036
:103C00000E94800D0AC085EB92E061E00E943E03B5
:103C10008CEB92E061E00E946B0ADF91CF911F91E3
:103C20000F91FF90EF90DF90CF9008956F927F9269
:103C30008F929F92AF92BF92CF92DF92EF92FF92BC
:103C40000F931F93CF93DF93CDB7DEB76C970FB66B
:103C5000F894DEBF0FBECDBF80E197E20E94DD2168
:103C600017E0612E712C8AC0CE0101960E941322AA
:103C700080E00E941405E980FA80EE0CEF2CEE1C27
:103C8000FF08F19487E090E060E070E040E050E0F1
:103C900026E030E003E010E00E948006EF84F88820
:103CA000EE0CEF2CEE1CFF08F19487E090E064E04E
:103CB00070E040E050E026E030E007E010E00E94D5
:103CC0008006F3E0AF2EB12CAC0EBD1EA5E08A2E0F
:103CD000912CB6E0CB2ED12CC3018C199D09F50196
:103CE000E080F180EE0CEF2CEE1CFF08F19480FFD9
:103CF0001BC0C60160E070E040E050E0940101E0CC
:103D000010E00E948006F501E684F784EE0CEF2CAB
:103D1000EE1CFF08F194C60166E070E040E050E060
:103D2000940107E010E01AC0C60162E070E040E0D4
:103D300050E0940103E010E00E948006F501E68463
:103D4000F784EE0CEF2CEE1CFF08F194C60164E042
:103D500070E040E050E0940105E010E00E94800631
:103D60000894C108D10808948108910882E090E085
:103D7000A80EB91EC114D10409F0AECF0E94F021E3
:103D8000882309F471CF6C960FB6F894DEBF0FBE8E
:103D9000CDBFDF91CF911F910F91FF90EF90DF90FA
:103DA000CF90BF90AF909F908F907F906F9008952D
:103DB00080E197E20E94DD210895CF93DF93EC012B
:103DC00080E00E941405209721F0C130D10581F4D4
:103DD00008C081EC92E061E00E943E030E94161E42
:103DE00011C08EEC92E061E00E943E030E94D81E5A
:103DF0008BED92E061E00E943E0388EE92E061E08C
:103E00000E946B0ADF91CF910895109200021092E8
:103E10000102109202021092030210920402109208
:103E2000050210920602109207021092740110927D
:103E3000750110927601109277011092780110921C
:103E4000790110927A0110927B0110BC87E089B948
:103E500086E880BD88EB8AB981E080936F01089580
:103E6000CF92DF92EF92FF920F931F93C090740155
:103E7000D0907501E0907601F0907701970186016E
:103E80000F5F1F4F2F4F3F4F4091780150917901A5
:103E900060917A0170917B01402751276227732737
:103EA0004F77507060707070411551056105710554
:103EB000C1F0B701A6014F77507060707070405923
:103EC0005E4FFA018487009374011093750120936B
:103ED000760130937701F894559A789481E090E0D8
:103EE00002C080E090E01F910F91FF90EF90DF9073
:103EF000CF9008958F929F92AF92BF92EF92FF92D0
:103F00000F931F93CF93DF93DC01EC9180907801A6
:103F100090907901A0907A01B0907B017C01C0E083
:103F2000D0E016C0F70181917F014F77507060702B
:103F30007070FA01E059FE4F84870093740110936A
:103F4000750120937601309377012196D701EC918A
:103F500040917401509175016091760170917701E3
:103F60008A019B010F5F1F4F2F4F3F4FD901C8019F
:103F700088259925AA25BB258F779070A070B070F1
:103F80000097A105B10511F0EE2361F6F894559A5A
:103F90007894CE01DF91CF911F910F91FF90EF9018
:103FA000BF90AF909F908F9008958F929F92AF9205
:103FB000BF92DF92EF92FF920F931F93CF93DF9305
:103FC000EC01FC01D4908090780190907901A09050
:103FD0007A01B0907B01EE24FF2416C089914F77BF
:103FE000507060707070FA01E059FE4F8487009342
:103FF0007401109375012093760130937701089432
:10400000E11CF11CFE01D4904091740150917501A6
:1040100060917601709177018A019B010F5F1F4FBC
:104020002F4F3F4FD901C80188259925AA25BB25C7
:104030008F779070A070B0700097A105B10511F056
:10404000DD2061F6F894559A7894C701DF91CF91FD
:104050001F910F91FF90EF90DF90BF90AF909F90D6
:104060008F9008950F931F93409104025091050281
:104070006091060270910702009100021091010206
:104080002091020230910302401751076207730723
:10409000D9F08A019B010F5F1F4F2F4F3F4F0093B5
:1040A00004021093050220930602309307024F7713
:1040B00050706070707044505E4FFA012485FC01AE
:1040C000208381E090E002C080E090E01F910F919A
:1040D0000895CF93DF93EB01FC0120E030E01AC09C
:1040E000AC01BD014F5F5F4F6F4F7F4F40930402A4
:1040F0005093050260930602709307028F779070C9
:10410000A070B07084509E4FDC011C968C918193FE
:104110002F5F3F4F8091040290910502A09106020B
:10412000B091070240910002509101026091020299
:104130007091030284179507A607B70719F02C178B
:104140003D0774F2C901DF91CF91089580936F010B
:1041500008950F931F9381E00091040210910502CE
:104160002091060230910702409100025091010215
:1041700060910202709103020417150726073707A2
:1041800009F480E01F910F9108951F920F920FB6CE
:104190000F9211240F931F932F933F934F935F938D
:1041A0006F937F938F939F93AF93BF93EF93FF93FF
:1041B0008091780190917901A0917A01B0917B0171
:1041C0004091740150917501609176017091770171
:1041D00084179507A607B707B9F08C019D010F5FFB
:1041E0001F4F2F4F3F4F0093780110937901209379
:1041F0007A0130937B018F779070A070B0708059F6
:104200009E4FFC0184858CB9809178019091790151
:10421000A0917A01B0917B0184179507A607B70793
:1042200009F45598FF91EF91BF91AF919F918F91B4
:104230007F916F915F914F913F912F911F910F91BE
:104240000F900FBE0F901F9018951F920F920FB6F0
:104250000F921124CF92DF92EF92FF920F931F9350
:104260002F933F934F935F936F937F938F939F937E
:10427000AF93BF93EF93FF939BB18CB194FD3FC07D
:1042800093FD3DC092FD3BC0C0900002D090010262
:10429000E0900202F0900302970186010F5F1F4F2A
:1042A0002F4F3F4F4091040250910502609106024A
:1042B0007091070240275127622773274F7750706C
:1042C000607070704115510561057105C1F0B7014D
:1042D000A6014F7750706070707044505E4FFA01C5
:1042E000848700930002109301022093020230930E
:1042F000030290916F01992311F00E94301FFF91EA
:10430000EF91BF91AF919F918F917F916F915F914D
:104310004F913F912F911F910F91FF90EF90DF9060
:10432000CF900F900FBE0F901F90189587E086B921
:1043300080E487B980E886B9089580918A02813047
:1043400049F410928C0210928B0210928902109202
:104350008802089580918B0290918C02009749F019
:1043600080918B0290918C02019790938C028093A4
:104370008B028091880290918902009749F0809188
:104380008802909189020197909389028093880214
:10439000089520918A02222379F42FEF8F3F92070C
:1043A00009F0019690938C0280938B0280918B028E
:1043B00090918C020097D1F7089520918A022223D0
:1043C00071F42FEF8F3F920731F00196909389029D
:1043D00080938802089590938902809388020895BB
:1043E000209188023091890281E02115310509F080
:1043F00080E0089580938A020895FB01E80FF91F79
:10440000442311F0849108958081089597B1907E9E
:1044100097B997B1982B97B9369A329BFECF84B152
:1044200095B180E00895AF92BF92CF92DF92EF9264
:10443000FF920F931F93CF93DF93DB9A000000004E
:10444000DB98EC0100E010E08AE0E82E81E0F82E35
:1044500098E9C92E92E0D92E20E3A22E25E0B22EB3
:10446000C7010197F1F7DA9AC6010197F1F7DA98D7
:10447000C5010197F1F781E00E9406228993999383
:1044800080E00E9406229D878C870F5F1F4F0730B8
:10449000110531F7DF91CF911F910F91FF90EF90B0
:1044A000DF90CF90BF90AF900895FC01DB011082A8
:1044B0009091A5009C9381E0929980E0891721F466
:1044C000882381F484E10FC090919E0091509093D5
:1044D0009E00992371F48093A50091E090838C93C2
:1044E000882321F082E380939E00089584E18093E5
:1044F0009E0008950E9428020E94051F0E940D033D
:104500000E94962187E0809329011092A8001092C2
:104510002A010E9406220E94C4257894C0E0D0E0BF
:104520000BE110E08091A800882319F40E94BF25B8
:1045300006C08091A800813049F4CE010196B801EF
:104540000E944325EC010E949E1BECCF8091A800A5
:10455000823031F480E00E94FA210E944D02E2CFC5
:104560008091A8008330F1F28091A8008430D1F2CC
:104570008091A800853019F40E949102D3CF109247
:10458000A800D0CF5058BB27AA270ED078C141D160
:1045900030F046D120F031F49F3F11F41EF436C1C3
:1045A0000EF4E095E7FB2CC1E92F8BD180F3BA170D
:1045B000620773078407950718F071F49EF5A3C18D
:1045C0000EF4E0950B2EBA2FA02D0B01B90190012E
:1045D0000C01CA01A0011124FF27591B99F0593F72
:1045E00050F4503E68F11A16F040A22F232F342FBA
:1045F0004427585FF3CF469537952795A795F04008
:104600005395C9F77EF41F16BA0B620B730B840B1C
:10461000BAF09150A1F0FF0FBB1F661F771F881FD4
:10462000C2F70EC0BA0F621F731F841F48F487952C
:1046300077956795B795F7959E3F08F0B3CF93951B
:10464000880F08F09927EE0F979587950895F0D079
:10465000E39526C10CD013C1E3D040F0DAD030F09E
:1046600021F45F3F19F0CCC051114EC1CFC029D108
:1046700098F39923C9F35523B1F3951B550BBB2729
:10468000AA2762177307840738F09F5F5F4F220FD6
:10469000331F441FAA1FA9F333D00E2E3AF0E0E8CF
:1046A00030D091505040E695001CCAF729D0FE2F1B
:1046B00027D0660F771F881FBB1F261737074807AD
:1046C000AB07B0E809F0BB0B802DBF01FF27935863
:1046D0005F4F2AF09E3F510568F092C015C15F3FC1
:1046E000ECF3983EDCF3869577956795B795F7954B
:1046F0009F5FC9F7880F911D9695879597F9089543
:10470000E1E0660F771F881FBB1F621773078407DE
:10471000BA0720F0621B730B840BBA0BEE1F88F7ED
:10472000E095089504D06894B111EEC00895D1D0F9
:1047300088F09F5790F0B92F9927B751A0F0D1F08A
:10474000660F771F881F991F1AF0BA95C9F712C014
:10475000B13081F0D8D0B1E00895D5C0672F782F5F
:104760008827B85F39F0B93FCCF386957795679580
:10477000B395D9F73EF490958095709561957F4FEC
:104780008F4F9F4F0895E89409C097FB3EF4909592
:104790008095709561957F4F8F4F9F4F9923A9F01A
:1047A000F92F96E9BB279395F695879577956795A9
:1047B000B795F111F8CFFAF4BB0F11F460FF1BC0ED
:1047C0006F5F7F4F8F4F9F4F16C0882311F096E980
:1047D00011C0772321F09EE8872F762F05C066232E
:1047E00071F096E8862F70E060E02AF09A95660FE7
:1047F000771F881FDAF7880F9695879597F90895A0
:1048000097F99F6780E870E060E008959FEF80EC83
:10481000089500240A941616170618060906089526
:1048200000240A9412161306140605060895EECF06
:1048300050D0E8F3E894E0E0BB279F57F0F02AED72
:104840003FE049EC06C0EE0FBB0F661F771F881FC5
:1048500028F0B23A62077307840728F0B25A620B55
:10486000730B840BE3959A9572F7803830F49A9520
:10487000BB0F661F771F881FD2F79048B6C0092E5E
:104880000394000C11F4882352F0BB0F40F4BF2BAB
:1048900011F460FF04C06F5F7F4F8F4F9F4F0895EB
:1048A000EF93E0FF06C0A2EA2AED3FE049EC5FEBA0
:1048B0007BDEE5DF0F90039401FC9058EAE8F0E01E
:1048C000A0C057FD9058440F551F59F05F3F71F03D
:1048D0004795880F97FB991F61F09F3F79F0879567
:1048E0000895121613061406551FF2CF4695F1DFF0
:1048F00008C0161617061806991FF1CF8695710580
:10490000610508940895E894BB2766277727CB01B3
:1049100097F908950BD0B3CF7CDF28F081DF18F032
:10492000952309F06DCF72CF1124EECFCADFA0F32B
:10493000959FD1F3950F50E0551F629FF001729F34
:10494000BB27F00DB11D639FAA27F00DB11DAA1F53
:10495000649F6627B00DA11D661F829F2227B00DA0
:10496000A11D621F739FB00DA11D621F839FA00D2B
:10497000611D221F749F3327A00D611D231F849F7B
:10498000600D211D822F762F6A2F11249F575040D2
:104990008AF0E1F088234AF0EE0FFF1FBB1F661F6D
:1049A000771F881F91505040A9F79E3F510570F026
:1049B00027CFAACF5F3FECF3983EDCF3869577953F
:1049C0006795B795F795E7959F5FC1F7FE2B880F21
:1049D000911D9695879597F908959F9329DF0F90DC
:1049E00007FCEE5F5DCF9F3F31F0915020F487953B
:1049F00077956795B795880F911D9695879597F947
:104A000008959F938F937F936F93FF93EF939B01F1
:104A1000AC0180DFEF91FF9105D02F913F914F9135
:104A20005F9178CFDF93CF931F930F93FF92EF9215
:104A3000DF927B018C01689405C0DA2EEF0176DFEE
:104A4000FE01E894A5912591359145915591AEF3DC
:104A5000EF01AADDFE019701A801DA9479F7DF9052
:104A6000EF90FF900F911F91CF91DF910895991BC7
:104A700079E004C0991F961708F0961B881F7A9555
:104A8000C9F78095089597FB092E07260AD077FD70
:104A900004D00CD006D000201AF4709561957F4F99
:104AA0000895F6F7909581959F4F0895AA1BBB1B1B
:104AB00051E107C0AA1FBB1FA617B70710F0A61B1E
:104AC000B70B881F991F5A95A9F780959095BC013F
:104AD000CD0108958F929F92AF92BF92CF92DF92B5
:104AE000EF92FF92CF93DF93EC0188819981AA81A5
:104AF000BB810097A105B10521F484E299EDABE5F6
:104B0000B7E0BC01CD012DE133EF41E050E00E9460
:104B1000222649015A0127EA31E440E050E00E9490
:104B200003266B017C01C501B4012CEE34EF4FEF7D
:104B30005FEF0E940326DC01CB01C80ED91EEA1EDE
:104B4000FB1EF7FE08C08FEF9FEFAFEFBFE7C80E69
:104B5000D91EEA1EFB1EC882D982EA82FB82C601E8
:104B60009F77DF91CF91FF90EF90DF90CF90BF9034
:104B7000AF909F908F9008950E946A2508958FE9C5
:104B800090E00E946A250895A0E0B0E080939F0025
:104B90009093A000A093A100B093A200089546EACC
:104BA00050E00E94D4250895FA01A191B0810097A8
:104BB00019F41097E1F0CD01DC01CD010D9000203A
:104BC00011F4C00113C0FB012191222319F020151B
:104BD000D9F7F3CFFB012191201519F41E921196FC
:104BE00006C02223C1F70D900020A1F7D001FA01E1
:104BF000A193B0830895E199FECF9FBB8EBBE09A4D
:104C000099278DB30895629FD001739FF001829F11
:104C1000E00DF11D649FE00DF11D929FF00D839F4B
:104C2000F00D749FF00D659FF00D9927729FB00DE8
:104C3000E11DF91F639FB00DE11DF91FBD01CF01FB
:104C40001124089597FB092E05260ED057FD04D098
:104C500014D00AD0001C38F4509540953095219519
:104C60003F4F4F4F5F4F0895F6F7909580957095A1
:104C700061957F4F8F4F9F4F0895A1E21A2EAA1B77
:104C8000BB1BFD010DC0AA1FBB1FEE1FFF1FA217FC
:104C9000B307E407F50720F0A21BB30BE40BF50BF9
:104CA000661F771F881F991F1A9469F76095709582
:104CB000809590959B01AC01BD01CF010895F894BA
:024CC000FFCF24
:104CC20020007365746D6F6465006C61756E636856
:104CD2006566666563740062006A0000010203048F
:104CE2000506070101020304050606020203030486
:104CF20004050503030303040404045447001401D8
:044D020000000000AD
:00000001FF
