:100000000C9461010C947E010C947E010C947E0191
:100010000C9480010C947E010C947E010C947E0162
:100020000C947E010C947E010C9460020C947E0171
:100030000C947E010C949A1F0C94441F0C947E0126
:100040000C947E010C947E010C947E010C947E0134
:100050000C947E016E1B781B861BA41BB01BB81B67
:10006000C01BF11B1B1C411C8F1C991CA51CAD1C2B
:10007000DE1C321D3E1D491D551D621D6D1D7A1D64
:10008000861D891D961D9E1DB01D05A84CCDB2D4A0
:100090004EB93836A9020C50B9918688083CA6AAF8
:1000A000AA2ABE000000803F0706050403020100E3
:1000B0001020304050607071727374757677675796
:1000C0004737271704031221304051627374655675
:1000D000473726154641494C004661696C0D0A00B8
:1000E00032363A20426F696E6720626F696E670D23
:1000F0000A0032353A20576F726D2073717565654D
:100100007A650D0A0032343A2052616E646F6D20B8
:10011000737061726B6C650D0A0032333A20536D57
:10012000696C6579207370696E0D0A0032323A206D
:10013000576F726D2073717565657A650D0A0032AF
:10014000313A205061746820746578740D0A003269
:10015000303A205061746820746578740D0A00315B
:10016000393A20536D696C6579207370696E0D0A98
:100170000031383A2050617468206269746D617092
:100180000D0A0031373A205061746820737069722B
:10019000616C0D0A0031363A20536D696C65792027
:1001A0007370696E0D0A0031353A20426F696E67CF
:1001B00020626F696E670D0A0031343A20466C790F
:1001C000696E6720626F7865733F0D0A0031333ABC
:1001D0002047616D65206F66204C6966650D0A00D9
:1001E000494E53545255435441424C4553003132C9
:1001F0003A20537472696E6720666C790D0A00317B
:10020000313A20576F726D2073717565657A650D8F
:100210000A0031303A204C6F6164206261720D0A2D
:1002200000393A2053757370656E642072616E6494
:100230006F6D0D0A00383A2054656C632073746149
:100240006972730D0A00373A20506C616E626F69F3
:100250006E670D0A00363A20426F7865730D0A000A
:10026000353A20426C696E6B790D0A00343A20579A
:100270006F726D73717565657A650D0A00333A208A
:100280005A20617869732075702F646F776E0D0A3C
:1002900000323A2052616E646F6D2066696C6C6545
:1002A000720D0A00313A2052616E646F6D20766FD4
:1002B00078656C730D0A00303A205261696E0D0A40
:1002C000000011241FBECFE5D8E0DEBFCDBF10E097
:1002D000A0E6B0E0EAE0F9E402C005900D92A8398A
:1002E000B107D9F712E0A8E9B0E001C01D92AE371E
:1002F000B107E1F70E9486020C9483240C9400005D
:100300001F920F920FB60F9211248F939F93AF936A
:10031000BF93EF93FF9380911E0190E00196877049
:10032000907080931E0118BAAFE6B0E09798E09104
:100330001E01F0E08C9193E0EE0FFF1F9A95E1F71C
:10034000E80FF11DE652FF4F808185BB979A119708
:1003500080E0A736B80751F7E0911E01F0E0E05ABF
:10036000FF4F81E090E0008002C0880F991F0A943F
:10037000E2F788BBFF91EF91BF91AF919F918F9171
:100380000F900FBE0F901F9018958CE08ABB8FEFD7
:1003900087BB84BB83EF81BB1BBA18BA15BA84E054
:1003A00082BB85EE8CBF83B7866083BF83B78860CE
:1003B00083BF12BE89B7826089BF8AE083BD85B5DD
:1003C000856085BD85B5886085BD14BC89B78068AA
:1003D00089BF08950F931F93CF93DF9300E010E040
:1003E000C0E0D0E080E10E941C035F9BFECF8CB197
:1003F00090E08F3F910531F45F9BFECF8CB190E090
:10040000009761F3F80123E0EE0FFF1F2A95E1F753
:10041000EC0FFD1FE656FF4F8083C730D10549F42E
:100420000730110519F40E94F309D8CF0F5F1F4F51
:10043000D7CF2196D7CFCF92DF92EF92FF920F9333
:100440001F93CF93DF9300E010E0C8010E943204B5
:1004500088EE93E00E942320C8010E9449040F5FA8
:100460001F4F0730110589F7CC24DD241DC0C601BC
:10047000BE0140E050E096018E01E7E0EE2EF12C47
:100480000E94300788EE93E00E94232080E00E94C3
:1004900057052196C830D10551F70894C11CD11CCD
:1004A00088E0C816D10419F0C0E0D0E0E0CFDF91B9
:1004B000CF911F910F91FF90EF90DF90CF90089513
:1004C0001F920F920FB60F9211242F933F934F93C9
:1004D0005F936F937F938F939F93AF93BF93EF93AC
:1004E000FF930E940A200E94FC02FF91EF91BF91AE
:1004F000AF919F918F917F916F915F914F913F91BC
:100500002F910F900FBE0F901F901895EF92FF92B2
:100510000F931F930E94C5010E94ED020E940420C8
:1005200082E080931B0187E080931E018091000090
:10053000909101000E94E223DC01CB010E94CF23B5
:100540007894809120018823E1F40E94CA237C01E1
:100550000027F7FC0095102F80910000909101007A
:10056000B801A7010E94E823C801B7012BE130E0E0
:1005700040E050E00E944323DC01CB010E94551B68
:10058000E0CF80E00E943920109220010E941B02DF
:10059000D8CFFF920F931F93DF93CF930F92CDB7D6
:1005A000DEB78E010F5F1F4F8DE0F82E0BC0C80124
:1005B0000E94AD1EE0919800F0E0E055FE4F898169
:1005C0008083F9820E942B1F882389F70F90CF9197
:1005D000DF911F910F91FF90089581E080931D019D
:1005E00080932201089580911C0190E00196837010
:1005F000907080931C01089590911C0180912201BC
:10060000981749F010921D0180911C0180932201DE
:1006100080ED80931A0180911D01882361F48091FF
:100620001A01815080931A0180911A01882319F4CC
:1006300081E080931D01089508950E943E1E089553
:10064000089778F477FD0DC06830710554F457FDB4
:1006500008C090E0483051050CF091E081E0982707
:1006600001C090E0892F0895FF920F931F93CF93BD
:10067000DF93F82E8B01EA010E9420038823A9F062
:10068000FE0183E0EE0FFF1F8A95E1F7E00FF11FF7
:10069000E656FF4F208181E090E002C0880F991F4D
:1006A000FA94E2F7809582238083DF91CF911F91A6
:1006B0000F91FF900895FF920F931F93CF93DF93B5
:1006C000F82E8B01EA010E9420038823A9F0FE0185
:1006D00093E0EE0FFF1F9A95E1F7E00FF11FE6524E
:1006E000FF4F208181E090E002C0880F991FFA94AB
:1006F000E2F7809582238083DF91CF911F910F9144
:10070000FF900895FF920F931F93CF93DF93F82EDE
:100710008B01EA010E9420038823A1F0FE0123E05F
:10072000EE0FFF1F2A95E1F7E00FF11FE656FF4F8E
:10073000208181E090E002C0880F991FFA94E2F7CF
:10074000282B2083DF91CF911F910F91FF90089567
:10075000FF920F931F93CF93DF93F82E8B01EA0143
:100760000E9420038823A1F0FE0133E0EE0FFF1F5B
:100770003A95E1F7E00FF11FE652FF4F208181E04B
:1007800090E002C0880F991FFA94E2F7282B20838B
:10079000DF91CF911F910F91FF900895FF920F93DA
:1007A0001F93CF93DF93F82E8B01EA010E94200361
:1007B000882389F043E0CC0FDD1F4A95E1F7C00F95
:1007C000D11FC652DF4F888190E002C09595879572
:1007D000FA94E2F78170DF91CF911F910F91FF9012
:1007E00008952130310519F40E94A80308950E944C
:1007F0005B030895FF920F931F93CF93DF93F82E1F
:100800008B01EA010E9420038823A1F0FE0153E03E
:10081000EE0FFF1F5A95E1F7E00FF11FE652FF4F71
:10082000208181E090E002C0880F991FFA94E2F7DE
:1008300028272083DF91CF911F910F91FF9008957A
:10084000CF93DF93FC01DA01E901681779071CF403
:10085000CB01BF01FC01ED93FC9379836883DF91A9
:10086000CF9108958830910598F420E030E063E05E
:10087000880F991F6A95E1F74FEFFC01E20FF31F14
:10088000E652FF4F40832F5F3F4F28303105A9F7D5
:1008900008958830910590F420E030E073E0880FEF
:1008A000991F7A95E1F7FC01E20FF31FE652FF4F23
:1008B00010822F5F3F4F28303105A9F708959C0122
:1008C0008830910530F581E090E002C0880F991FD3
:1008D0002A95E2F7982F40E050E012C0FB01E20FAA
:1008E000F31FE652FF4F8081892B80832F5F3F4F9C
:1008F0002830310599F74F5F5F4F4830510549F077
:1009000020E030E0BA01E3E0660F771FEA95E1F7F7
:10091000E5CF08959C018830910538F581E090E09D
:1009200002C0880F991F2A95E2F7982F909540E012
:1009300050E012C0FB01E20FF31FE652FF4F80812F
:10094000892380832F5F3F4F2830310599F74F5F10
:100950005F4F4830510549F020E030E0BA01F3E044
:10096000660F771FFA95E1F7E5CF08958830910576
:1009700098F420E030E04FEFF901A3E0EE0FFF1F05
:10098000AA95E1F7E80FF91FE652FF4F40832F5F6A
:100990003F4F2830310581F708958830910590F454
:1009A00020E030E0F901B3E0EE0FFF1FBA95E1F768
:1009B000E80FF91FE652FF4F10822F5F3F4F28309C
:1009C000310581F70895893749F08A37F9F088377A
:1009D000A1F5862F90E00E945F04089570E06830D2
:1009E000710558F520E030E08FEFF90193E0EE0F4C
:1009F000FF1F9A95E1F7E60FF71FE652FF4F80833E
:100A00002F5F3F4F2830310581F7089570E068303F
:100A1000710598F420E030E083E0660F771F8A9537
:100A2000E1F78FEFFB01E20FF31FE652FF4F8083E8
:100A30002F5F3F4F28303105A9F70895893749F0D6
:100A40008A37F1F0883791F5862F90E00E948A046A
:100A5000089570E06830710548F520E030E0F90154
:100A600053E0EE0FFF1F5A95E1F7E60FF71FE6522E
:100A7000FF4F10822F5F3F4F2830310581F70895D7
:100A800070E06830710590F420E030E043E0660FDC
:100A9000771F4A95E1F7FB01E20FF31FE652FF4F84
:100AA00010822F5F3F4F28303105A9F7089540E0AD
:100AB00050E010C0FB01E20FF31FE652FF4F8083AE
:100AC0002F5F3F4F28303105A9F74F5F5F4F483008
:100AD000510549F020E030E0BA01E3E0660F771FEE
:100AE000EA95E1F7E7CF089540E050E010C0FB0140
:100AF000E20FF31FE656FF4F80832F5F3F4F2830F2
:100B00003105A9F74F5F5F4F4830510549F020E0AC
:100B100030E0BA01F3E0660F771FFA95E1F7E7CF0F
:100B20000895EF92FF920F931F93CF93DF93DC0111
:100B3000EB01F9012817390714F4D901FC010C174E
:100B40001D071CF4CE01E8018C01E416F5061CF427
:100B5000CA01A7017C0131968FEF90E09C0102C091
:100B6000220F331FEA95E2F7209502C0880F991FE4
:100B7000AA95E2F728230EC0FB01EA0FFB1FE652FD
:100B8000FF4F8081822B808311960A171B07A4F7E1
:100B90004F5F5F4FE416F50644F0DE01BA0183E0D3
:100BA000660F771F8A95E1F7F0CFDF91CF911F9104
:100BB0000F91FF90EF900895CF92DF92EF92FF9206
:100BC0000F931F93CF93DF93DC01F90128173907A7
:100BD00014F4D901FC01061717071CF4CB01B80166
:100BE0008C01E416F5061CF4CA01A7017C0181E022
:100BF00090E09C010E2E02C0220F331F0A94E2F7F0
:100C00000A2E02C0880F991F0A94E2F7C22EC82A42
:100C100031968FEF90E09C0102C0220F331FEA95BE
:100C2000E2F7D22ED09402C0880F991FAA95E2F75E
:100C3000D8229A0121C0A617B70749F0A017B1071B
:100C400031F02417350719F02E153F0539F4FE0150
:100C5000EA0FFB1FE652FF4FD08208C0FE01EA0FE9
:100C6000FB1FE652FF4F80818C29808311960A1763
:100C70001B070CF72F5F3F4FE216F30644F0DB0132
:100C8000E90193E0CC0FDD1F9A95E1F7F0CFDF91FA
:100C9000CF911F910F91FF90EF90DF90CF9008952B
:100CA0006F927F928F929F92AF92BF92CF92DF927C
:100CB000EF92FF920F931F93CF93DF933C014B0171
:100CC0005A0169012817390714F439016C01081514
:100CD00019051CF4C40148018C01EA14FB041CF43E
:100CE000C50157017C010894C11CD11C8FEF90E015
:100CF0009C010C2C02C0220F331F0A94E2F70894C7
:100D0000C108D1082095062C02C0880F991F0A94AB
:100D1000E2F72823D50143E0AA0FBB1F4A95E1F76C
:100D2000FD01E80DF91DE652FF4F2083A00FB11F12
:100D3000A652BF4F2C93D70133E0AA0FBB1F3A95A1
:100D4000E1F7FD01E80DF91DE652FF4F2083A00FEA
:100D5000B11FA652BF4F2C93E40115C0C301BE01C1
:100D6000A5010E94A803C301BE01A7010E94A80318
:100D7000C601BE01A5010E94A803C601BE01A701CC
:100D80000E94A80321960C171D0744F7E50115C022
:100D9000C301B401AE010E94A803C301B801AE01B2
:100DA0000E94A803C601B401AE010E94A803C601B7
:100DB000B801AE010E94A8032196EC16FD0644F787
:100DC000DF91CF911F910F91FF90EF90DF90CF9027
:100DD000BF90AF909F908F907F906F9008956F5FBE
:100DE0007F4F2FEF30E0A90102C0440F551F6A95D5
:100DF000E2F7BA01609502C0220F331F8A95E2F72D
:100E0000862F82230895482F282F30E082958695DB
:100E10008270942F991F9927991F892B942F96954B
:100E2000969596959470892B46954870842B220F41
:100E3000331F922F9071892B220F331F220F331FE4
:100E4000922F9072892B220F331F220F331F922F64
:100E50009074892B220F331F220F331F822B08958A
:100E60002F923F924F925F926F927F928F929F92BA
:100E7000AF92BF92CF92DF92EF92FF920F931F93A8
:100E8000DF93CF93CDB7DEB766970FB6F894DEBF8A
:100E90000FBECDBF2C015B014A0119016701281764
:100EA00039073CF412012901C8018B015C016A0178
:100EB00047013101641875080A151B0544F4B50192
:100EC000601B710B882777FD8095982F07C00A1942
:100ED0001B09B801882777FD8095982F0E94BE21B5
:100EE0007B018C01B301882777FD8095982F0E94A4
:100EF000BE219B01AC01C801B7010E9423216D8373
:100F00007E838F839887310164187508C814D904CB
:100F100044F4B4016C197D09882777FD8095982FDA
:100F200007C0C818D908B601882777FD8095982F83
:100F30000E94BE217B018C01B301882777FD80953B
:100F4000982F0E94BE219B01AC01C801B7010E94ED
:100F5000232169837A838B839C83642CC501AA2710
:100F600097FDA095BA2F8D879E87AF87B88BC40158
:100F7000AA2797FDA095BA2F898B9A8BAB8BBC8B38
:100F80004BC06D897E8964197509882777FD809526
:100F9000982F0E94BE215B016C016D817E818F8143
:100FA0009885A60195010E9483227B018C016D85A5
:100FB0007E858F8598890E94BE219B01AC01C80166
:100FC000B7010E94BC200E94902169877A878B8795
:100FD0009C8769817A818B819C81A60195010E9401
:100FE00083227B018C0169897A898B899C890E9483
:100FF000BE219B01AC01C801B7010E94BC200E9428
:1010000090219B01AC018D899E89698570E0422FFA
:1010100050E00E94A8036394A62DB0E0BE8BAD8B78
:101020002A163B060CF0ADCF66960FB6F894DEBFDD
:101030000FBECDBFCF91DF911F910F91FF90EF9029
:10104000DF90CF90BF90AF909F908F907F906F90E8
:101050005F904F903F902F9008952F923F924F9224
:101060005F926F927F929F92AF92BF92CF92DF92E8
:10107000EF92FF920F931F93CF93DF93982E5B0114
:10108000CC24DD24A7E02A2E312C8FEFA8168FEF79
:10109000B80611F4760103C07101EC18FD0800E0F8
:1010A00010E0270108944108510837010894611C99
:1010B000711C3AC08FEFA8168FEFB80611F4C30168
:1010C00001C0C201AC018AE7981649F4C801BE010B
:1010D0000E94CE03282FC801BE01A70119C089E7CD
:1010E000981651F4C801BA01AE010E94CE03282F10
:1010F000C801B701AE010CC088E7981661F4CA01B7
:10110000BE01A8010E94CE03282FC701BE01A8017D
:1011100030E00E94F1032196C830D10559F60F5FE7
:101120001F4F0830110519F0C0E0D0E0C3CF08947C
:10113000C11CD11C88E0C816D10409F0A6CF8FEFDE
:10114000A8168FEFB80619F0EE24FF2403C0F7E0CD
:10115000EF2EF12C00E010E01FC08AE7981621F472
:10116000C801BE01A7010DC089E7981621F4C80186
:10117000B701AE0106C088E7981629F4C701BE0181
:10118000A8010E945B032196C830D10531F70F5F9B
:101190001F4F0830110519F0C0E0D0E0DECFDF911D
:1011A000CF911F910F91FF90EF90DF90CF90BF9064
:1011B000AF909F907F906F905F904F903F902F9057
:1011C0000895DF93CF93CDB7DEB7C054D0400FB6AC
:1011D000F894DEBF0FBECDBFDE011196EAEDF0E060
:1011E00080E401900D928150E1F740E050E0BE01B3
:1011F0006F5F7F4F18C08C91F90193E0EE0FFF1FD6
:101200009A95E1F7E40FF51FE652FF4F8083189699
:10121000215030408FEF2F3F380769F74F5F5F4F06
:101220004830510531F0DB01A40FB51F27E030E055
:10123000E2CFC05CDF4F0FB6F894DEBF0FBECDBF6C
:10124000CF91DF9108958F929F92AF92BF92CF92EC
:10125000DF92EF92FF920F931F93DF93CF93CDB75F
:10126000DEB7C054D0400FB6F894DEBF0FBECDBF7E
:10127000DE011196EAEDF0E080E401900D928150DC
:10128000E1F70E945705EE24FF244E010894811CCB
:10129000911C17C0F60181916F010E940307F501AF
:1012A000E00FF11FE652FF4F80830F5F1F4F0830A2
:1012B000110581F70894E11CF11CF8E0EF16F10428
:1012C00069F0C70123E0880F991F2A95E1F76401AF
:1012D000C80ED91E00E010E05C01DCCFC05CDF4F1F
:1012E0000FB6F894DEBF0FBECDBFCF91DF911F9137
:1012F0000F91FF90EF90DF90CF90BF90AF909F90B5
:101300008F9008958F929F92AF92BF92CF92DF926B
:10131000EF92FF920F931F93DF93CF93CDB7DEB77A
:10132000C054D0400FB6F894DEBF0FBECDBFDE0173
:101330001196EAEDF0E080E401900D928150E1F722
:101340000E945705AA24BB244E010894811C911CBD
:101350002AC0F701808190E0002E02C09595879504
:101360000A94E2F780FF05C0C801B601A5010E94FA
:10137000A8030F5F1F4F0830110559F70894E11CAF
:10138000F11C0894C108D108FFEFCF16FFEFDF066C
:1013900019F000E010E0DDCF0894A11CB11C88E03A
:1013A000A816B10461F0750143E0EE0CFF1C4A95EC
:1013B000E1F7E80CF91C37E0C32ED12CEACFC05C72
:1013C000DF4F0FB6F894DEBF0FBECDBFCF91DF91D8
:1013D0001F910F91FF90EF90DF90CF90BF90AF9053
:1013E0009F908F900895AAEDB0E0EAE9F0E080E4E4
:1013F00001900D928150E1F70895CF93DF93EC01B6
:10140000DC0120E030E014C0A830B10574F42830CD
:1014100031055CF4FD0183E0EE0FFF1F8A95E1F7D3
:10142000E20FF31FE652FF4F60832F5F3F4F11978C
:10143000C217D3074CF7CA010E942320CE01DF91C7
:10144000CF9108950F931F93CF93DF938B01EA0100
:10145000892B51F080E190E0BE01A8010E94FD09B6
:10146000019797FFF9CF0AC080E090E0BE01A80184
:101470000E94FD09019680319105C4F3DF91CF915F
:101480001F910F9108957F928F929F92AF92BF927A
:10149000CF92DF92EF92FF920F931F93CF93DF9340
:1014A000E82EF62E742E6901C0E0D0E027E0822EEF
:1014B000912C98E0A92EB12C87E0781669F484016C
:1014C0000C1B1D0BA5014C1B5D0B8E2D90E06F2D91
:1014D00070E00E945B030AC0AE01415050408E2D67
:1014E00090E06F2D70E00E945B038E018E2D90E0E6
:1014F0006F2D70E0A8010E94A803C6010E9423205E
:101500002196C830D105C1F6DF91CF911F910F917F
:10151000FF90EF90DF90CF90BF90AF909F908F9013
:101520007F900895CF92DF92EF92FF920F931F93D7
:10153000CF93DF936C017B010894E108F1088B01E4
:1015400002501040080F191F25C0C0E0D0E0F8017C
:101550008081682F70E06F70707082958F7090E05E
:10156000AE010E94CE03282FF8018181682F70E020
:101570006F70707082958F7090E0AE0130E00E94C5
:10158000F1032196C830D10511F70894E108F1085C
:10159000015010401E141F04C4F2C0E0D0E0F60158
:1015A0008081682F70E06F70707082958F7090E00E
:1015B000AE010E945B032196C830D10581F7DF910F
:1015C000CF911F910F91FF90EF90DF90CF900895F2
:1015D0005F926F927F928F929F92AF92BF92CF92C3
:1015E000DF92EF92FF920F931F93DF93CF93CDB7CC
:1015F000DEB76C970FB6F894DEBF0FBECDBF4C01BF
:10160000562E3A0180E05E010894A11CB11CB50180
:101610004CE150E00E94D319CC24DD243FC0852D3D
:101620006F2D4E2D0E94ED19882341F080E090E04F
:1016300067E070E0A8010E94A80307C080E090E086
:1016400067E070E0A8010E945B030F5F1F4FFA94F0
:101650008FEFF81621F7C4010E942320C5016CE129
:1016600070E00E94920AE39488E0E81629F000E016
:1016700010E037E0F32ED3CF00E010E0C4010E9469
:101680002320C5016CE170E00E94920A0F5F1F4F9A
:101690000431110599F70894C11CD11CC614D70454
:1016A00014F4EE24E4CF00E010E07E010894E11C85
:1016B000F11CC4010E942320C7016CE170E00E946C
:1016C000920A0F5F1F4F0A30110599F76C960FB6FB
:1016D000F894DEBF0FBECDBFCF91DF911F910F9168
:1016E000FF90EF90DF90CF90BF90AF909F908F9042
:1016F0007F906F905F9008952F923F924F925F92EC
:101700006F927F928F929F92AF92BF92CF92DF9211
:10171000EF92FF920F931F93DF93CF93CDB7DEB776
:10172000A1970FB6F894DEBF0FBECDBF782EA92EBD
:101730002B01642E56E0852E912C8C0E9D1E80E090
:10174000B4014CE150E00E94D319C201662D0E9401
:101750003C20BB2414014EC0BE016F5F7F4F0E942E
:101760002A1A7E010894E11CF11CF701808100E037
:1017700010E0C82EDD2487E090E0801B910B9601DD
:1017800002C0359527958A95E2F720FF08C080E0D2
:1017900090E067E070E0A8010E94A80307C080E025
:1017A00090E067E070E0A8010E945B030F5F1F4FAD
:1017B0000830110501F7C4016CE170E00E94920A43
:1017C000872D9A2D0E9423200894E11CF11CE2141D
:1017D000F30459F6C1016CE170E00E94920A872D72
:1017E0009A2D0E942320B394C2018B0D911D662D6A
:1017F0000E943C20882309F0AFCF00E010E046E0D3
:10180000E42EF12CEC0EFD1EC7016CE170E00E948D
:10181000920A872D9A2D0E9423200F5F1F4F0C31B3
:10182000110591F7A1960FB6F894DEBF0FBECDBF9C
:10183000CF91DF911F910F91FF90EF90DF90CF90AC
:10184000BF90AF909F908F907F906F905F904F90E0
:101850003F902F9008959F92AF92BF92CF92DF92C8
:10186000EF92FF920F931F93DF93CF93CDB7DEB725
:1018700060970FB6F894DEBF0FBECDBF5C016B0161
:1018800081E08E010F5F1F4FB80140E150E00E94E0
:10189000D319EE24FF24902E012F15C0A701477005
:1018A000507084E090E060E070E00E94A803C60100
:1018B0000E942320892D902F6CE170E00E94920AF3
:1018C0000894E11CF11CEA14FB0444F360960FB683
:1018D000F894DEBF0FBECDBFCF91DF911F910F9166
:1018E000FF90EF90DF90CF90BF90AF909F900895C2
:1018F0007F928F929F92AF92BF92CF92DF92EF92A0
:10190000FF920F931F93DF93CF93CDB7DEB76C9702
:101910000FB6F894DEBF0FBECDBF4C015B0180E077
:101920008E010F5F1F4FB8014CE150E00E94D319A8
:1019300074E0E72EF12CCC24DD24702E012F2AC078
:101940000E94CA230894E108F10863E070E00E9455
:101950003023E80EF91E88E0E816F10424F067E071
:10196000E62EF12C04C0F7FE02C0EE24FF24872DE2
:10197000902F6CE170E00E94920A80E090E067E0B6
:1019800070E0A7010E94A803C5010E9423200894CB
:10199000C11CD11CC814D9049CF26C960FB6F894E3
:1019A000DEBF0FBECDBFCF91DF911F910F91FF9092
:1019B000EF90DF90CF90BF90AF909F908F907F90EF
:1019C00008952F923F924F925F926F927F928F92E3
:1019D0009F92AF92BF92CF92DF92EF92FF920F93BE
:1019E0001F93DF93CF93CDB7DEB7EC970FB6F89484
:1019F000DEBF0FBECDBF9FA78EA769AB7AAB48AB4A
:101A0000DE011196E0E7F0E080E201900D92815056
:101A1000E1F71DA61CA69E012F5F3F4F3CAF2BAFE9
:101A2000CEC1222433244424552488249924C4017B
:101A300001962114310451F44C018430910539F49C
:101A400051E0252E312C8824992401C04C01C40179
:101A500043E0880F991F4A95E1F76BAC7CAC681A9C
:101A6000790AAA24BB24E7E0EBA32FE130E0620E61
:101A7000731EE1E0F0E0EC0FFD1FE80FF91FFAAF75
:101A8000E9AF26C088A96BA1402F0E94ED198823D9
:101A900061F02114310411F4F70101C0F6016081F5
:101AA000C80170E0A5010E94A8030F5F1F4F0894B2
:101AB000C108D1080894E11CF11C0830110511F788
:101AC0000894A11CB11CFBA1F150FBA3FF3F31F016
:101AD0006301E9ACFAAC00E010E0D4CF89A99AA97F
:101AE0000E94232080E00E9457050894411C511C4D
:101AF00027E04216510409F09ACF222433241BA672
:101B00001AA666247724C30101962114310451F4E6
:101B10003C018430910539F431E0232E312C6624C8
:101B2000772401C03C01C30123E0880F991F2A9547
:101B3000E1F74BAC5CAC481A590A88249924E7E0D9
:101B4000ECA32FE130E0420E531EE1E0F0E0EC0F99
:101B5000FD1FE80FF91FF8AFEFAB2BC04E2D415022
:101B600088A96CA10E94ED19882361F02114310429
:101B700011F4F60101C0F501808190E0B801A401E3
:101B80000E94A8030894E11CF11C01501040089425
:101B9000A108B1080894C11CD11CF9E0EF16F104AA
:101BA000E9F60894811C911C2CA121502CA32F3FF5
:101BB00049F05201CFA8D8AC81E0E82EF12C07E023
:101BC00010E0CCCF89A99AA90E94232080E00E942E
:101BD00057058AA59BA501969BA78AA7079709F099
:101BE00092CF1AA219A219A618A6AA24BB24C5012D
:101BF0000196E9A1FAA1EF2B59F45C01843091051B
:101C000041F421E030E03AA329A3AA24BB2401C077
:101C10005C01C50103E0880F991F0A95E1F74BAC01
:101C20005CAC481A590A8824992417E0212EEFE168
:101C3000F0E04E0E5F1E21E030E02C0F3D1F280F1C
:101C4000391F3EAB2DAB2AC03801089461087108DA
:101C500088A9622D432D0E94ED19882369F089A17E
:101C60009AA1892B11F4F70101C0F6016081C3012B
:101C700070E0A4010E94A8030F5F1F4F3A940894DC
:101C8000C108D1080894E11CF11CFFEF3F16E1F6F2
:101C90000894811C911C2A942F1641F06201EDA832
:101CA000FEA801E010E0B7E03B2ECECF89A99AA9AB
:101CB0000E94232080E00E94570528A539A52F5FA8
:101CC0003F4F39A728A72730310509F090CF2224AC
:101CD00033241FA21EA266247724C3010196211477
:101CE000310451F43C018430910539F4A1E02A2EED
:101CF000312C6624772401C03C01C301F3E0880F36
:101D0000991FFA95E1F74BAC5CAC481A590A882444
:101D10009924E7E0EDA32FE130E0420E531EE1E00D
:101D2000F0E0EC0FFD1FE80FF91FFCABEBAB2AC096
:101D300088A96DA1402F0E94ED19882361F021141C
:101D4000310411F4F60101C0F501808190E0B80181
:101D5000A4010E94A8030894E11CF11C015010404A
:101D60000894A108B1080894C11CD11CF9E0EF1631
:101D7000F104F1F60894811C911C2DA121502DA392
:101D80002F3F49F05201CBA8DCA8E1E0EE2EF12C68
:101D900007E010E0CDCF89A99AA90E94232080E016
:101DA0000E9457058EA19FA101969FA38EA307971E
:101DB00009F093CFECA5FDA53196FDA7ECA72CA5C6
:101DC0003DA58EA59FA5281739070CF42ACEEC96C1
:101DD0000FB6F894DEBF0FBECDBFCF91DF911F913C
:101DE0000F91FF90EF90DF90CF90BF90AF909F90BA
:101DF0008F907F906F905F904F903F902F900895BD
:101E00006F927F928F929F92AF92BF92CF92DF920A
:101E1000EF92FF920F931F93CF93DF933C014B01FF
:101E20005A01CC24DD242CC00E94CA238C010E94BC
:101E3000CA237C010E94CA23FC01C80168E070E04B
:101E40000E9430238C01C70168E070E00E943023BB
:101E50009C01CF0168E070E00E943023AC01C80112
:101E6000B9010E94A80321968C169D06ECF6C501C7
:101E70000E94232080E00E9457050894C11CD11CB9
:101E8000C614D7041CF4C0E0D0E0EECFDF91CF91B0
:101E90001F910F91FF90EF90DF90CF90BF90AF9088
:101EA0009F908F907F906F900895CF93DF93C1E0C4
:101EB000D0E085E090E0BE0148EC50E00E94000FC9
:101EC0002196C431D105A9F785E090E0BE0148EC28
:101ED00050E00E94000F2197B9F7DF91CF9108954C
:101EE000DF92EF92FF920F931F93CF93DF938C01BA
:101EF00080E00E945705C0E0D0E0DD24DA9478014C
:101F000011C0F901E80FF91FE652FF4FD082019688
:101F100088309105B1F7C7010E9423202196C8306F
:101F2000D10549F080E090E09E01E3E0220F331FED
:101F3000EA95E1F7E6CFC801880F991F800F911F3E
:101F40000E942320C0E0D0E011C0F901E80FF91F82
:101F5000E652FF4F1082019688309105B1F7C70114
:101F60000E9423202196C830D10549F080E090E0FE
:101F70009E0163E0220F331F6A95E1F7E6CFDF9100
:101F8000CF911F910F91FF90EF90DF9008954F92A6
:101F90005F926F927F929F92AF92BF92CF92DF92A9
:101FA000EF92FF920F931F93CF93DF93982E162FEC
:101FB000072F3A0180E00E945705212F302FC901D9
:101FC0006C01C0E0D0E0F7E04F2E512C35C0611419
:101FD000710431F0F5018081A201481B510904C050
:101FE000F7018081482F50E0FAE79F1619F4CE01DF
:101FF000B8010DC089E7981621F4CE01BA01A801F5
:1020000006C098E7991629F4CA01B801AE010E94EA
:10201000A8030F5F1F4F0894A11CB11C0894E11C7A
:10202000F11C0830110599F62196E8E0F0E0CE0E9B
:10203000DF1EC830D10529F05601760100E010E01E
:10204000C6CFDF91CF911F910F91FF90EF90DF905E
:10205000CF90BF90AF909F907F906F905F904F9088
:1020600008953F924F925F926F927F928F929F92CC
:10207000AF92BF92CF92DF92EF92FF920F931F9396
:10208000DF93CF93CDB7DEB7C058D0400FB6F894EA
:10209000DEBF0FBECDBF382E2B014A01390100E053
:1020A00010E06E010894C11CD11CB1E4EB2EF12CA0
:1020B000EC0EFD1EF601E00FF11F10820E94CA23F4
:1020C000F701E00FF11F68E070E00E943023808389
:1020D0000F5F1F4F0034110569F7EE24FF245E01E6
:1020E0000894A11CB11CA1E4CA2ED12CCC0EDD1E7B
:1020F0001CC0D8019C918081981710F49F5F9C931D
:102100000F5F1F4F31960C151D0599F7832DB501F3
:10211000A3010E94C70FC2010E9423200894E11C62
:10212000F11CB8E0EB16F10419F08501F601E1CFDE
:10213000F80127E0CE018F579F4F2193E817F90749
:10214000E1F7C4010E942320EE24FF244E010894ED
:10215000811C911C1FC080819C91891710F48F5F96
:1021600080838081981710F4815080833196119676
:10217000E017F10781F7832DB401A3010E94C70F77
:10218000C2010E9423200894E11CF11C88E0E8169B
:10219000F10419F0F501D601DECFC058DF4F0FB6BC
:1021A000F894DEBF0FBECDBFCF91DF911F910F918D
:1021B000FF90EF90DF90CF90BF90AF909F908F9067
:1021C0007F906F905F904F903F900895AC01DC013D
:1021D000FB0120E030E09C918081981710F49F5F14
:1021E0009C939C918081891710F491509C932F5F50
:1021F0003F4F119631962034310569F78AE7BA01CD
:1022000040E050E00E94C70F08952F923F924F92F6
:102210005F926F927F928F929F92AF92BF92CF9276
:10222000DF92EF92FF920F931F93DF93CF93CDB77F
:10223000DEB7C058D0400FB6F894DEBF0FBECDBF9A
:102240002C017B0100E010E05E010894A11CB11C90
:1022500024E0922E91E4C92ED12CCC0EDD1EF50186
:10226000E00FF11F90820E94CA23F601E00FF11FD8
:1022700068E070E00E94302380830F5F1F4F0034BE
:10228000110569F700E010E081E4A82EB12CAC0E36
:10229000BD1E6E010894C11CD11C3701C601B501D9
:1022A0004AE70E94E610C3010E9423200F5F1F4FE0
:1022B0000830110599F75701AA0CBB1CAA0CBB1CCE
:1022C000CC24DD2411E4812E912C8C0E9D1E1E0148
:1022D0000894211C311C32C000E010E0C101B4019F
:1022E0004AE70E94E610C3010E9423200F5F1F4FA0
:1022F0000830110599F7C5010E942320EE24FF2420
:102300000E94CA238C010E94CA239C01C80160E478
:1023100070E00E943023F401E80FF91FC90168E062
:1023200070E00E94302380830894E11CF11C80E25D
:10233000E816F10429F70894C11CD11CC414D50473
:102340005CF2C058DF4F0FB6F894DEBF0FBECDBFB2
:10235000CF91DF911F910F91FF90EF90DF90CF9081
:10236000BF90AF909F908F907F906F905F904F90B5
:102370003F902F9008958F929F92AF92BF92CF92ED
:10238000DF92EF92FF920F931F93CF93DF934C0155
:102390008B016130710511F480E001C08FEF0E9464
:1023A0005705C0E0D0E00E94CA2368E070E00E94B8
:1023B0003023B82EA92E0E94CA2368E070E00E9444
:1023C0003023D82EC92E0E94CA2368E070E00E94F4
:1023D0003023F82EE92E0115110559F48B2D9A2D75
:1023E0006D2D7C2D4F2D5E2D0E94CE038130D9F4B2
:1023F0000DC001301105B9F48B2D9A2D6D2D7C2D5A
:102400004F2D5E2D0E94CE03882369F48B2D9A2DCB
:102410006D2D7C2D4F2D5E2D98010E94F103C4017E
:102420000E942320219681E0CF3FD8070CF4BBCF38
:10243000DF91CF911F910F91FF90EF90DF90CF90A0
:10244000BF90AF909F908F9008956F927F928F92E0
:102450009F92AF92BF92DF92EF92FF920F931F93E2
:10246000CF93DF933C015B014A0180E00E94570556
:1024700000E010E01FC00E94CA2362E070E00E94EA
:102480003023AC0133E0440F551F3A95E1F7481B68
:10249000590BC801BE010E94A8032196C830D1057E
:1024A00051F70F5F1F4F0830110521F4DD24EE2492
:1024B000FF2430C0C0E0D0E0DECF0E94CA23EC0190
:1024C0000E94CA2368E070E00E943023082F8E1516
:1024D00001F1CE0168E070E00E943023182F8D15C5
:1024E000C1F090E0602F70E040E050E00E94CE0329
:1024F000882321F0812F602F40E003C0812F602FBF
:1025000047E095010E94430AC4010E942320D12E76
:10251000E02EF3948F2D90E08615970574F2DF91ED
:10252000CF911F910F91FF90EF90DF90BF90AF90F0
:102530009F908F907F906F900895EF92FF920F93EE
:102540001F93CF93DF9380E00E94570500E010E0D7
:102550004FEEE42E42E0F42E47C080E00E94570583
:10256000CE010E9423208FEF0E94570584E690E061
:102570000E942320CE0166EF7FEF0E94302388EE79
:1025800093E00E9430236F507040C60FD71F1C1677
:102590001D061CF388EE93E00E942320CEEED2E0CD
:1025A00080E00E945705C7018C1B9D0B0E942320D1
:1025B0008FEF0E94570584E690E00E942320CE0111
:1025C00066EF7FEF0E94302388EE93E00E94302375
:1025D0006F507040C60FD71F1C161D060CF30F5FFF
:1025E0001F4F0230110519F0CEEED2E0B6CFDF91C9
:1025F000CF911F910F91FF90EF9008952F923F92EE
:102600004F925F926F927F928F929F92AF92BF9202
:10261000CF92DF92EF92FF920F931F93DF93CF93AE
:10262000CDB7DEB72E970FB6F894DEBF0FBECDBF85
:102630009A8389837C836B835E834D8338872F8362
:102640001A8709874F5F5F4F21F467E0262E312CF0
:1026500002C02224332459E0652E712C89819A818D
:10266000681A790A0E94CA23B3010E9430236C01C0
:102670000E94CA23B3010E9430237C0144245524C4
:102680007CC00E94CA238C010E94CA239C01C801FD
:1026900063E070E00E94302301978C0D9D1D9E87A2
:1026A0008D87181619061CF48615970514F0DE861A
:1026B000CD86C90163E070E00E9430238C01015097
:1026C00010400E0D1F1D101611061CF406151705DF
:1026D0000CF087018B816D817E810E942D088D8495
:1026E0009E84AA24BB2431C0EB81FC81EA37F1052A
:1026F00021F4C401B601A10115C08B819C818937E9
:10270000910521F4C401B101A6010CC0EB81FC814B
:10271000E837F10549F44D855E854E0D5F1DC10119
:102720006B857C850E94A8030894E11CF11C089429
:10273000C11CD11C89819A81E816F906ACF2089473
:10274000A11CB11C0894811C911CE981FA81AE1670
:10275000BF064CF46801EE24FF24C501800F911FD1
:102760009C878B87E7CF89859A850E9423200894D0
:10277000411C511CCD84DE847801EF81F8854E1612
:102780005F060CF47ECF2E960FB6F894DEBF0FBE18
:10279000CDBFCF91DF911F910F91FF90EF90DF9010
:1027A000CF90BF90AF909F908F907F906F905F90F1
:1027B0004F903F902F900895AF92BF92CF92DF92AB
:1027C000EF92FF920F931F93CF93DF935C01CC2482
:1027D000DD2433C00E94CA2364E070E00E943023ED
:1027E000EC01EE24FF241AC00E94CA238C010E942F
:1027F000CA239C01C80168E070E00E943023FC01FC
:10280000C90168E070E00E943023BC01CF0147E0BD
:1028100050E00E94A8030894E11CF11CEC16FD0690
:102820001CF388EE93E00E9423208AE76FEF7FEF8E
:102830000E942D080894C11CD11CCA14DB0454F258
:10284000DF91CF911F910F91FF90EF90DF90CF908C
:10285000BF90AF9008952F923F925F926F927F92B8
:102860008F929F92AF92BF92CF92DF92EF92FF92A0
:102870000F931F93DF93CF9300D000D00F92CDB76B
:10288000DEB76C01562E0E943C203E010894611C6C
:10289000711CE0E82E2E312C48C0B3010E942A1A88
:1028A000EE24FF2420C09101002E02C0359527950B
:1028B0000A94E2F7F401808190E028233923232B46
:1028C00031F087E090E0B501A8010E94A8030F5FF6
:1028D0001F4F0830110539F70894E11CF11CF5E091
:1028E000EF16F10459F000E010E043018E0C9F1C3C
:1028F00072E0A72EB12CAE0CBF1CD5CF00E010E0CB
:1029000088EE93E00E94232088E76FEF7FEF0E941C
:102910002D080F5F1F4F0630110591F70894C11C59
:10292000D11CC601652D0E943C20882309F0B5CF3B
:1029300000E010E088EE93E00E94232088E76FEF2C
:102940007FEF0E942D080F5F1F4F0830110591F790
:102950000F900F900F900F900F90CF91DF911F91DC
:102960000F91FF90EF90DF90CF90BF90AF909F902E
:102970008F907F906F905F903F902F9008952F924F
:102980003F924F925F926F927F928F929F92AF92FF
:10299000BF92CF92DF92EF92FF920F931F93DF933C
:1029A000CF93CDB7DEB7C158D0400FB6F894DEBF95
:1029B0000FBECDBFCF57DF4F8883C158D0402B010A
:1029C0003A014901B1E4AB2EB12CAC0EBD1EF501AC
:1029D000A1E8CA2ED12CCC0EDD1E1192EC15FD05FE
:1029E000E1F700E010E01E010894211C311C81E099
:1029F00088169104C9F414C00E94CA2360E470E0F0
:102A00000E943023E1E4F0E0EC0FFD1FE80FF91F16
:102A10008081882389F70F5F1F4F91E0908316C054
:102A2000003411054CF312C082E08816910471F451
:102A3000003411055CF4E1E4F0E0EC0FFD1FE00F61
:102A4000F11F80818F5F80830F5F1F4FF501EE24A0
:102A5000FF249081892F8150863010F49F5F9083EE
:102A60008081873019F40894E11CF11C3196EC1533
:102A7000FD0579F7D101F50180814114510419F068
:102A800097E0981B892F8C9331961196EC15FD05D4
:102A900099F7C3010E942320CF57DF4F8881C15887
:102AA000D040B10140E050E00E94C70F80E10E9499
:102AB0001C0380E4E816F10409F099CFCF57DF4FEB
:102AC0000FB6F894DEBF0FBECDBFCF91DF911F913F
:102AD0000F91FF90EF90DF90CF90BF90AF909F90BD
:102AE0008F907F906F905F904F903F902F900895C0
:102AF0002F923F924F925F926F927F928F929F920E
:102B0000AF92BF92CF92DF92EF92FF920F931F93FB
:102B1000DF93CF93CDB7DEB7E8970FB6F894DEBF5B
:102B20000FBECDBF9AAB89AB7CAB6BAB222E80E0E6
:102B30000E9457050E94CA2368E070E00E9430237B
:102B40007C013C010E94CA2368E070E00E943023AF
:102B50008C012C010E94CA2368E070E00E9430239F
:102B6000382F292F6C01FE013196CE01C1969EAB04
:102B70008DAB00831183E282F38234832583369602
:102B80008DA99EA9E817F907A1F711E0E12EF12C14
:102B9000B1E08B2E912CA1E0AA2EB12CFE013B9727
:102BA000F8AFEFAB4BC20E94CA2363E070E00E9413
:102BB0003023892B71F50E94CA2363E070E00E94E4
:102BC0003023009759F40E94CA2363E070E00E940A
:102BD00030237C010894E108F1081BC08130910585
:102BE00059F40E94CA2363E070E00E9430234C0134
:102BF0000894810891080DC08230910551F40E941B
:102C0000CA2363E070E00E9430235C010894A108AD
:102C1000B108FFEFEF16FFEFFF0699F441145104DE
:102C200081F40E94CA2363E070E00E943023019780
:102C300019F0EE24FF2403C0F1E0EF2EF12C11E097
:102C400001C010E08FEF88168FEF980699F4611499
:102C5000710481F40E94CA2363E070E00E94302373
:102C6000019719F08824992403C0E1E08E2E912C5D
:102C700001E001C000E09FEFA9169FEFB906A1F4A3
:102C8000C114D10489F40E94CA2363E070E00E9459
:102C90003023019719F0AA24BB2403C071E0A72EAA
:102CA000B12C3324339401C03324E1E0EE16F10457
:102CB00099F4F7E04F16510479F40E94CA2363E0B7
:102CC00070E00E943023019719F0EE24FF2403C026
:102CD000EE24EA94FE2C11E081E08816910499F428
:102CE00097E06916710479F40E94CA2363E070E0EA
:102CF0000E943023019719F08824992403C0882466
:102D00008A94982C01E0E1E0AE16B104A1F4F7E05A
:102D1000CF16D10481F40E94CA2363E070E00E94C0
:102D20003023019719F0AA24BB2403C0AA24AA9433
:102D3000BA2C33243394112351F18114910491F46A
:102D400087E06816710439F06114710441F00E9443
:102D5000CA2380FD04C088248A94982C03C061E0B3
:102D6000862E912CA114B10491F497E0C916D104D8
:102D700039F0C114D10441F00E94CA2380FD04C07F
:102D8000AA24AA94BA2C03C051E0A52EB12C00238A
:102D900051F1E114F10491F4E7E04E16510439F0D9
:102DA0004114510441F00E94CA2380FD04C0EE2466
:102DB000EA94FE2C03C041E0E42EF12CA114B104EE
:102DC00091F4F3E0CF16D10439F0C114D10441F0ED
:102DD0000E94CA2380FD04C0AA24AA94BA2C03C06E
:102DE00031E0A32EB12C332061F18114910491F4D0
:102DF00087E06816710439F06114710441F00E9493
:102E0000CA2380FD04C088248A94982C03C021E042
:102E1000822E912CE114F104A1F497E0491651049B
:102E200021F4EE24EA94FE2C29C04114510421F42B
:102E300091E0E92EF12C08C00E94CA2380FF04C152
:102E400051C041145104B1F46114710441F4C1142E
:102E5000D10451F1E7E0CE16D10461F425C0F7E0CA
:102E60006F16710439F4C114D104F1F087E0C8166B
:102E7000D104D1F097E04916510461F56114710451
:102E800041F4C114D10481F0E7E0CE16D10411F56C
:102E90000BC0F7E06F167104E9F4C114D10421F0FE
:102EA00087E0C816D104B1F40E94CA2363E070E041
:102EB0000E943023009719F4EE24FF240BC08130C8
:102EC000910519F48824992405C08230910511F4E4
:102ED000AA24BB244114510441F49FEFE9169FEF4B
:102EE000F90619F481E0E82EF12C6114710441F423
:102EF000EFEF8E16EFEF9E0619F401E0802E912C75
:102F0000C114D10441F4FFEFAF16FFEFBF0619F46F
:102F100011E0A12EB12C87E04816510439F491E05C
:102F2000E916F10419F4EE24EA94FE2CE7E06E169B
:102F3000710439F4F1E08F16910419F488248A940D
:102F4000982C87E0C816D10439F491E0A916B10491
:102F500019F4AA24AA94BA2C4E0C5F1C680C791C94
:102F6000CA0CDB1CE1E02E1679F4C201B301A60104
:102F70000E94A8038BA99CA90E942320C201B3012F
:102F8000A6010E945B0355C0F2E02F1651F4C20166
:102F9000B301A6010E94FA038BA99CA90E942320D9
:102FA00048C083E0281609F044C0FE01B596808130
:102FB00091819783868382819381918780878481A1
:102FC00095819387828736978FA998ADE817F9077F
:102FD00071F75A8249827C826B82DE82CD828E01B9
:102FE0000F5F1F4FF8016281738144815581808199
:102FF00091810E94A8030A5F1F4F8DA99EA90817FF
:10300000190781F78BA99CA90E9423208E010F5FCD
:103010001F4FF801628173814481558180819181C4
:103020000E945B030A5F1F4F8DA99EA9081719070D
:1030300081F7E9A9FAA93197FAABE9AB89A99AA96D
:10304000892B09F0B0CD04C0EE24EA94FE2C4DCFBC
:10305000E8960FB6F894DEBF0FBECDBFCF91DF91DB
:103060001F910F91FF90EF90DF90CF90BF90AF90A6
:103070009F908F907F906F905F904F903F902F9098
:103080000895CF92DF92EF92FF920F931F93CF9309
:10309000DF93F82E6B01EA0180E00E9457058F2D27
:1030A00090E00E94320410E10E94CA2364E070E0C4
:1030B0000E943023E82E0E94CA2364E070E00E9440
:1030C0003023082F8E2D90E0602F70E04F2D50E0C0
:1030D0000E94CE03882341F38E2D602F4F2D960141
:1030E0000E94430ACE010E9423201150E9F6DF918D
:1030F000CF911F910F91FF90EF90DF90CF900895A7
:103100008F929F92AF92BF92CF92DF92EF92FF92F7
:103110000F931F93CF93DF935C016B0180E00E94BC
:103120005705C0E0D0E003E0802E912C1C141D0454
:1031300014F0CE0103C0C4018C1B9D0BAC014C5F8D
:103140005F4F7401E81AF90ACA01BA0197018701B1
:103150000E945006C5010E94232080E00E9457056E
:103160002196C430D10511F7DF91CF911F910F91B6
:10317000FF90EF90DF90CF90BF90AF909F908F9097
:1031800008952F923F924F925F926F927F928F920B
:103190009F92AF92BF92CF92DF92EF92FF920F93E6
:1031A0001F93DF93CF9300D0CDB7DEB79A83898387
:1031B0004B011A012901AA24BB242EEF622E2FEF06
:1031C000722E660E771E4BC0CC24DD2488E0C81614
:1031D000D10434F497E0E92EF12CEC18FD0806C078
:1031E00088EFE82E8FEFF82EEC0CFD1C80E00E949B
:1031F000570581E090E00E942320F89480E090E061
:1032000060E070E040E050E0970187010E945006C6
:103210001214130414F40E94E10891E08916910439
:1032200021F0E3E08E16910411F40E948209F2E08D
:103230006F16710410F40E9423097894C2010E9451
:10324000232080E00E9457050894C11CD11C80E116
:10325000C816D10409F0BACF0894A11CB11CE981A9
:10326000FA81AE16BF060CF4AFCF0F900F90CF913E
:10327000DF911F910F91FF90EF90DF90CF90BF9063
:10328000AF909F908F907F906F905F904F903F9006
:103290002F900895EF92FF920F931F93E82EF62E32
:1032A000072F10E080E00E9457058E2D612F0E94AD
:1032B000E3048F2D902F0E9423201F5F183091F779
:1032C00017E080E00E9457058E2D612F0E94E304D5
:1032D0008F2D902F0E942320115098F71F910F914E
:1032E000FF90EF900895AF92BF92CF92DF92EF924E
:1032F000FF920F931F93CF93DF93C0E0D0E0BE0106
:1033000033E0759567953A95E1F7882777FD8095C5
:10331000982F0E94BE217B018C010E94E6229B0116
:10332000AC010E94BC2020E030E040E650E40E9466
:10333000BC200E948B215B016C01C801B7010E9477
:1033400020219B01AC010E94BC2020E030E040E63F
:1033500050E40E94BC200E948B217B018C01C5019E
:10336000B70141E050E00E94A803C501B70141E068
:1033700050E00E94A80388EE93E00E94232080E0A2
:103380000E945705219683E0C83ED80709F0B7CFC1
:10339000DF91CF911F910F91FF90EF90DF90CF9031
:1033A000BF90AF900895813019F48CE190E002C095
:1033B00080E090E0DC01A855BF4F20E030E009C07C
:1033C000FD018491FB01E20FF31F80832F5F3F4FCC
:1033D000119624173507A4F308951F93142F90E036
:1033E00023E0880F991F2A95E1F7860F911D8753D7
:1033F0009E4F0E94DA2390E002C0959587951A951A
:10340000E2F781701F910895EF92FF920F931F933F
:10341000CF93DF937B01C82FD0E033E0CC0FDD1FCB
:103420003A95E1F7C753DE4F00E010E0CE010E946D
:10343000DA23F701E00FF11F80830F5F1F4F219602
:103440000830110599F7DF91CF911F910F91FF90EF
:10345000EF900895EF92FF920F931F93CF93DF9316
:103460007B01805295E0899F800111240E5F1F4FE0
:10347000C0E0D0E0C8010E94DA23F701EC0FFD1F85
:10348000808321960F5F1F4FC530D10599F7DF91DB
:10349000CF911F910F91FF90EF900895CF93DF93FD
:1034A00060E070E040E050E018C0FE01E20FF31F62
:1034B000DF01A656BF4F9C91E652FF4F80819817BF
:1034C00011F06F5F7F4F2F5F3F4F2830310569F755
:1034D0004F5F5F4F4830510549F020E030E0EA018E
:1034E00083E0CC0FDD1F8A95E1F7DFCFCB01DF91C1
:1034F000CF9108953F924F925F926F927F928F92F9
:103500009F92AF92BF92CF92DF92EF92FF920F9372
:103510001F93CF93DF933C014B015A01DD24EE242E
:10352000EA94FE2C34C0E114F10429F401151105CC
:1035300011F4209781F0CE018A0D9B1D68E070E0A8
:103540000E943023AC01832D942D652D7C2D0E948B
:10355000CE038111D3942196C230D10521F70F5F9C
:103560001F4F0230110561F0C801880D991D68E0F8
:1035700070E00E943023582EC92ECFEFDFEFD3CF5B
:103580000894E11CF11C82E0E816F10461F0C70127
:10359000860D971D68E070E00E943023382E492E7A
:1035A0000FEF1FEFE1CF8D2DDF91CF911F910F9185
:1035B000FF90EF90DF90CF90BF90AF909F908F9053
:1035C0007F906F905F904F903F900895DF92EF92C1
:1035D000FF920F931F93CF93DF9380E00E947405B7
:1035E000EE24FF2433C0C701B801AE010E947A1A4D
:1035F000D82EC701B801AE010E94CE03813059F424
:103600008D1518F483E08D1548F4C701B801AE019B
:103610000E94340308C083E0D81629F4C701B8011A
:10362000AE010E9482032196C830D105E1F60F5FFA
:103630001F4F0830110519F0C0E0D0E0D4CF089436
:10364000E11CF11C88E0E816F10419F000E010E03C
:10365000F3CFDF91CF911F910F91FF90EF90DF900B
:103660000895EF92FF920F931F93CF93DF937C0106
:103670008B01C0E0D0E00FC080E20E941C030E94DA
:10368000E61A0E944E1A892B49F00E94F309C801DC
:103690000E9423202196CE15DF0574F3DF91CF9190
:1036A0001F910F91FF90EF900895EF92FF920F936B
:1036B0001F93CF93DF93182F092F80E00E945705A7
:1036C000E12FF02FEB31F10508F058C2E65DFF4F16
:1036D000EE0FFF1F0590F491E02D099487EB92E027
:1036E00061E00E941D0384E690E00E94DC1350C25A
:1036F00084EA92E061E00E941D0384E190E06CEDB9
:1037000070E040ED57E00E94251242C281E992E04C
:1037100061E00E941D0385E090E061E070E00E949E
:10372000BB1185E090E060E070E00E94BB1185E095
:1037300090E061E070E00E94BB1185E090E060E005
:1037400070E00E94BB1124C28DE792E061E00E940C
:103750001D0384E190E068EE73E00E94051118C239
:103760008CE692E061E00E941D0382E090E0EDC1F2
:1037700080E692E061E00E941D030E949D1208C253
:1037800085E592E061E00E941D0300E010E0B801D1
:1037900063707070A8014470507081E090E022EC7A
:1037A00031E00E94C1180F5F1F4F0830110579F7F3
:1037B00080E293E060E070E00E94801880E293E095
:1037C00061E070E00E94801880E293E060E070E0C9
:1037D0000E94801880E293E061E070E00E9480180F
:1037E000D7C186E492E061E00E941D038AE790E081
:1037F00060E971E00E944A1988E790E060E971E0B1
:103800000E944A1989E790E060E971E00E944A1934
:103810008AE790E060E971E00E944A1988E790E049
:1038200060E971E00E944A1989E790E060E971E07F
:103830000E944A19ADC185E392E061E00E941D0338
:1038400080E090E060E273E04FEF50E00E94220AD7
:1038500080E090E060E273E040E050E00E94220AE5
:1038600081E090E060E273E04FEF50E00E94220AB6
:1038700081E090E060E273E04FEF50E00E94220AA6
:1038800087C181E292E061E00E941D038AE766E25F
:1038900072E048E853E120E030E00E9431108AE70E
:1038A00066E272E048E853E121E030E00E94311026
:1038B0008AE766E272E048E853E120E030E00E94E7
:1038C00031108AE766E272E048E853E121E030E037
:1038D0000E94311088E766E272E048E853E120E098
:1038E00030E00E94311088E766E272E048E853E178
:1038F00021E030E00E94311089E766E272E048E89A
:1039000053E120E030E00E94311089E766E272E086
:1039100048E853E121E030E00E94311039C182E1F2
:1039200092E061E00E941D038CEB92E00E94700F18
:103930002FC18FEF91E061E00E941D0381E090E0D4
:103940006AE770E041E050E004C18EEE91E061E092
:103950000E941D0380EE91E018C18DEC91E061E0C2
:103960000E941D03C0E0D0E00E94CA238C010E9487
:10397000CA237C010E94CA23FC01C80164E070E0F4
:103980000E9430238C01C70164E070E00E94302364
:103990009C01CF0164E070E00E943023AC01C801BB
:1039A000B9010E94A8032196C431D105E9F684E14A
:1039B00090E060E971E00E94311BEAC089EB91E080
:1039C00061E00E941D038AE760E070E048EC50E08F
:1039D00021E030E00E94BF148CED95E00E9423208E
:1039E0008AE761E070E048EC50E021E030E00E94BE
:1039F000BF148CED95E00E9423208AE760E070E020
:103A000048EC50E022E030E00E94BF148CED95E0DD
:103A10000E9423208AE761E070E048EC50E022E059
:103A200030E00E94BF148CED95E00E94232089E7CE
:103A300060E070E048EC50E021E030E00E94BF140C
:103A40008CED95E00E94232089E761E070E048EC6E
:103A500050E021E030E00E94BF148CED95E00E9420
:103A6000232096C087EA91E061E00E941D038AEF5F
:103A700090E068E572E041E022E07DC085E991E0F8
:103A800061E00E941D0382E090E068EE73E040E098
:103A90004AC083E891E061E00E941D0384E690E063
:103AA00064EF71E00E942B0C73C081E791E061E04C
:103AB0000E941D038CEB92E062E043E050E00E9424
:103AC000E80A66C08FE591E061E00E941D0382E094
:103AD00090E068EE73E041E026C08FE491E061E0A1
:103AE0000E941D0388EE93E060E970E040E00E94D0
:103AF0007C0B4EC08FE391E061E00E941D0388ECD7
:103B000090E064EF71E00E94780C42C08CE291E09A
:103B100017C08AE191E061E00E941D0382E090E01D
:103B200068EE73E042E00E94E10C32C085E091E073
:103B300061E00E941D030E94550F2AC082EF90E0B1
:103B400061E00E941D0381E090E06AE770E04FEFC2
:103B50005FEF24E630E008EE13E00E94FE1218C08A
:103B600080EE90E061E00E941D038AEF90E068E53E
:103B700072E041E023E00E9478150AC089ED90E0F0
:103B800061E00E941D0384ED90E061E00E942B142F
:103B9000DF91CF911F910F91FF90EF9008951092B8
:103BA000F4011092F5011092F6011092F7011092B3
:103BB000F8011092F9011092FA011092FB01109293
:103BC00028011092290110922A0110922B011092C3
:103BD0002C0110922D0110922E0110922F0110BC79
:103BE00087E089B986E880BD88EB8AB981E0809357
:103BF00023010895EF92FF920F931F93682F209156
:103C000028013091290140912A0150912B0179011D
:103C10008A010894E11CF11C011D111D80912C01E9
:103C200090912D01A0912E01B0912F018E259F25FD
:103C3000A027B1278F779070A070B0700097A10572
:103C4000B10519F420E030E013C0F901EF77F0700E
:103C5000EC5DFE4F6487E0922801F0922901009309
:103C60002A0110932B01F894559A789421E030E0C2
:103C7000C9011F910F91FF90EF9008956F927F926D
:103C80008F929F92AF92BF92CF92DF92EF92FF926C
:103C90000F931F93CF93DF936C01762E662371F4FD
:103CA000DC016C9080902C0190902D01A0902E0151
:103CB000B0902F01E60160E070E01DC0FC0164904F
:103CC000F1CFF901EF77F070EC5DFE4F88818487CA
:103CD000E0922801F092290100932A0110932B0110
:103CE0006F5F7F4F772011F4698004C0F601E60F03
:103CF000F71F64902196209128013091290140916D
:103D00002A0150912B0179018A010894E11CF11CD0
:103D1000011D111DD801C70188259925AA25BB259C
:103D20008F779070A070B0700097A105B10511F069
:103D3000662039F6F894559A7894CB01DF91CF91AB
:103D40001F910F91FF90EF90DF90CF90BF90AF90B9
:103D50009F908F907F906F900895CF93DF93EC01A9
:103D60002091F8013091F9014091FA015091FB0145
:103D70008091F4019091F501A091F601B091F701C5
:103D8000281739074A075B0719F420E030E019C00B
:103D90002F5F3F4F4F4F5F4F2093F8013093F90152
:103DA0004093FA015093FB01215030404040504075
:103DB000F901EF77F070E051FE4F8485888321E0B0
:103DC00030E0C901DF91CF9108950F931F93CF93F6
:103DD000DF938C01C0E0D0E070E01CC02F5F3F4F4C
:103DE0004F4F5F4F2093F8013093F9014093FA0150
:103DF0005093FB012150304040405040F801EC0FFF
:103E0000FD1FD901AF77B070A051BE4F1C968C91A9
:103E1000808321962091F8013091F9014091FA01B7
:103E20005091FB018091F4019091F501A091F60170
:103E3000B091F701281739074A075B0719F0C61731
:103E4000D70764F2CE01DF91CF911F910F910895B2
:103E500080932301089560E02091F8013091F901E9
:103E60004091FA015091FB018091F4019091F5018C
:103E7000A091F601B091F701281739074A075B07AF
:103E800009F061E0862F08951F920F920FB60F92EE
:103E900011242F933F934F935F938F939F93AF93EF
:103EA000BF93EF93FF9380912C0190912D01A091EE
:103EB0002E01B0912F0120912801309129014091CC
:103EC0002A0150912B0182179307A407B507A9F087
:103ED0000196A11DB11D80932C0190932D01A093FB
:103EE0002E01B0932F010197A109B109FC01EF77D1
:103EF000F070EC5DFE4F84858CB980912C0190911F
:103F00002D01A0912E01B0912F0182179307A407D4
:103F1000B50709F45598FF91EF91BF91AF919F912B
:103F20008F915F914F913F912F910F900FBE0F9006
:103F30001F9018951F920F920FB60F921124EF92B7
:103F4000FF920F931F932F933F934F935F936F9322
:103F50007F938F939F93AF93BF93EF93FF938BB117
:103F60006CB184FD3CC083FD3AC082FD38C0209115
:103F7000F4013091F5014091F6015091F70179017A
:103F80008A010894E11CF11C011D111D8091F801AA
:103F90009091F901A091FA01B091FB018E259F2526
:103FA000A027B1278F779070A070B0700097A105FF
:103FB000B105A9F0F901EF77F070E051FE4F648789
:103FC000E092F401F092F5010093F6011093F701ED
:103FD00080912301882319F0862F0E94FA1DFF91FA
:103FE000EF91BF91AF919F918F917F916F915F9171
:103FF0004F913F912F911F910F91FF90EF900F9054
:104000000FBE0F901F90189586B1876086B93E9AB3
:10401000379A089580911B01813029F410927D0216
:1040200010927C02089580917C0290917D02892BF0
:1040300049F080917C0290917D02019790937D02DE
:1040400080937C0208959C0180911B01882381F458
:104050008FEF2F3F380731F02F5F3F4F30937D02B6
:1040600020937C0280917C0290917D02892BD1F774
:10407000089580931B010895FC01662311F084913B
:1040800008958081089597B1907E97B997B1982B44
:1040900097B9369A329BFECF84B185B180E090E02B
:1040A0000895AF92BF92CF92DF92EF92FF920F935B
:1040B0001F93CF93DF93DB9A00000000DB98EC01A5
:1040C00000E010E02AE0A22E21E0B22E98E9C92EED
:1040D00092E0D92E80E3E82E85E0F82EC501019705
:1040E000F1F7DA9AC6010197F1F7DA98C70101975B
:1040F000F1F781E00E9443209983888380E00E9449
:1041000043209F878E870F5F1F4F22960730110530
:1041100029F7DF91CF911F910F91FF90EF90DF90E2
:10412000CF90BF90AF900895FC01DB011082809189
:1041300099008C9392B39695969590959170981757
:1041400021F4992381F484E10FC080919300815080
:1041500080939300882371F49093990081E0808389
:104160009C93992321F082E380939300089584E146
:104170008093930008955058BB27AA270ED078C18A
:1041800041D130F046D120F031F49F3F11F41EF4BC
:1041900036C10EF4E095E7FB2CC1E92F8BD180F3FB
:1041A000BA17620773078407950718F071F49EF534
:1041B000A3C10EF4E0950B2EBA2FA02D0B01B9016F
:1041C00090010C01CA01A0011124FF27591B99F08D
:1041D000593F50F4503E68F11A16F040A22F232F99
:1041E000342F4427585FF3CF469537952795A795E9
:1041F000F0405395C9F77EF41F16BA0B620B730B90
:10420000840BBAF09150A1F0FF0FBB1F661F771F00
:10421000881FC2F70EC0BA0F621F731F841F48F4B5
:10422000879577956795B795F7959E3F08F0B3CF3B
:104230009395880F08F09927EE0F97958795089525
:10424000F0D0E39526C10CD013C1E3D040F0DAD012
:1042500030F021F45F3F19F0CCC051114EC1CFC0F6
:1042600029D198F39923C9F35523B1F3951B550B25
:10427000BB27AA2762177307840738F09F5F5F4F39
:10428000220F331F441FAA1FA9F333D00E2E3AF07A
:10429000E0E830D091505040E695001CCAF729D094
:1042A000FE2F27D0660F771F881FBB1F26173707E3
:1042B0004807AB07B0E809F0BB0B802DBF01FF2713
:1042C00093585F4F2AF09E3F510568F092C015C188
:1042D0005F3FECF3983EDCF3869577956795B7954D
:1042E000F7959F5FC9F7880F911D9695879597F968
:1042F0000895E1E0660F771F881FBB1F62177307E1
:104300008407BA0720F0621B730B840BBA0BEE1FF5
:1043100088F7E095089504D06894B111EEC008952F
:10432000D1D088F09F5790F0B92F9927B751A0F0BE
:10433000D1F0660F771F881F991F1AF0BA95C9F739
:1043400012C0B13081F0D8D0B1E00895D5C0672F48
:10435000782F8827B85F39F0B93FCCF386957795E9
:104360006795B395D9F73EF49095809570956195D2
:104370007F4F8F4F9F4F0895E89409C097FB3EF4FD
:1043800090958095709561957F4F8F4F9F4F9923A2
:10439000A9F0F92F96E9BB279395F6958795779520
:1043A0006795B795F111F8CFFAF4BB0F11F460FFE0
:1043B0001BC06F5F7F4F8F4F9F4F16C0882311F038
:1043C00096E911C0772321F09EE8872F762F05C04C
:1043D000662371F096E8862F70E060E02AF09A95E7
:1043E000660F771F881FDAF7880F9695879597F9DC
:1043F000089597F99F6780E870E060E008959FEF67
:1044000080EC089500240A9416161706180609066B
:10441000089500240A94121613061406050608953A
:10442000EECF50D0E8F3E894E0E0BB279F57F0F0E0
:104430002AED3FE049EC06C0EE0FBB0F661F771F69
:10444000881F28F0B23A62077307840728F0B25A2F
:10445000620B730B840BE3959A9572F7803830F4F6
:104460009A95BB0F661F771F881FD2F79048B6C07A
:10447000092E0394000C11F4882352F0BB0F40F472
:10448000BF2B11F460FF04C06F5F7F4F8F4F9F4FB2
:104490000895EF93E0FF06C0A2EA2AED3FE049EC61
:1044A0005FEB7BDEE5DF0F90039401FC9058EAE8B8
:1044B000F0E0A0C057FD9058440F551F59F05F3FE2
:1044C00071F04795880F97FB991F61F09F3F79F036
:1044D00087950895121613061406551FF2CF4695B8
:1044E000F1DF08C0161617061806991FF1CF86953A
:1044F0007105610508940895E894BB27662777271E
:10450000CB0197F908950BD0B3CF7CDF28F081DF82
:1045100018F0952309F06DCF72CF1124EECFCADFCA
:10452000A0F3959FD1F3950F50E0551F629FF001C6
:10453000729FBB27F00DB11D639FAA27F00DB11D1F
:10454000AA1F649F6627B00DA11D661F829F2227A8
:10455000B00DA11D621F739FB00DA11D621F839F2F
:10456000A00D611D221F749F3327A00D611D231F05
:10457000849F600D211D822F762F6A2F11249F5753
:1045800050408AF0E1F088234AF0EE0FFF1FBB1F76
:10459000661F771F881F91505040A9F79E3F510515
:1045A00070F027CFAACF5F3FECF3983EDCF38695FF
:1045B00077956795B795F795E7959F5FC1F7FE2BC0
:1045C000880F911D9695879597F908959F9329DFF8
:1045D0000F9007FCEE5F5DCF9F3F31F0915020F4CC
:1045E000879577956795B795880F911D96958795CF
:1045F00097F908959F938F937F936F93FF93EF9312
:104600009B01AC0180DFEF91FF9105D02F913F918D
:104610004F915F9178CFDF93CF931F930F93FF92CA
:10462000EF92DF927B018C01689405C0DA2EEF01D6
:1046300076DFFE01E894A59125913591459155913C
:10464000AEF3EF01AADDFE019701A801DA9479F734
:10465000DF90EF90FF900F911F91CF91DF91089520
:1046600097FB092E07260AD077FD04D02ED006D05E
:1046700000201AF4709561957F4F0895F6F7909594
:1046800081959F4F0895A1E21A2EAA1BBB1BFD0125
:104690000DC0AA1FBB1FEE1FFF1FA217B307E40721
:1046A000F50720F0A21BB30BE40BF50B661F771F79
:1046B000881F991F1A9469F7609570958095909559
:1046C0009B01AC01BD01CF010895AA1BBB1B51E1A9
:1046D00007C0AA1FBB1FA617B70710F0A61BB70B72
:1046E000881F991F5A95A9F780959095BC01CD0117
:1046F0000895A0E0B0E0EFE7F3E20C945424EC015D
:10470000A880B980CA80DB80A114B104C104D1049F
:1047100041F484E2A82E89EDB82E8BE5C82E87E0FF
:10472000D82EC601B5012DE133EF41E050E00E94E3
:10473000312427EA31E440E050E00E9412247B015A
:104740008C01C601B5012DE133EF41E050E00E943C
:104750003124CA01B9012CEE34EF4FEF5FEF0E9414
:1047600012246E0D7F1D801F911F97FF04C06150A2
:10477000704080409048688379838A839B839B0143
:104780003F77C901CDB7DEB7EAE00C9470240E94F0
:104790007923089584E990E00E9479230895A0E0A8
:1047A000B0E08093940090939500A0939600B0930E
:1047B00097000895E199FECF9FBB8EBBE09A9927A1
:1047C0008DB30895A6E1B0E044E050E00C94F723E7
:1047D000242F0E940624252F0E9406240C94F023E7
:1047E0000E940524272F0C940624DC01CB01FC0138
:1047F000E199FECF06C0FFBBEEBBE09A31960DB249
:104800000D9241505040B8F70895262FE199FECF00
:104810009FBB8EBB2DBB0FB6F894E29AE19A0FBEF8
:1048200001960895629FD001739FF001829FE00D71
:10483000F11D649FE00DF11D929FF00D839FF00D1F
:10484000749FF00D659FF00D9927729FB00DE11DCB
:10485000F91F639FB00DE11DF91FBD01CF011124A8
:10486000089597FB092E05260ED057FD04D00BDFC7
:104870000AD0001C38F450954095309521953F4F53
:104880004F4F5F4F0895F6F790958095709561951D
:104890007F4F8F4F9F4F08952F923F924F925F927D
:1048A0006F927F928F929F92AF92BF92CF92DF9240
:1048B000EF92FF920F931F93CF93DF93CDB7DEB7A5
:1048C000CA1BDB0B0FB6F894DEBF0FBECDBF099439
:1048D0002A88398848885F846E847D848C849B8490
:1048E000AA84B984C884DF80EE80FD800C811B819E
:1048F000AA81B981CE0FD11D0FB6F894DEBF0FBECD
:0A490000CDBFED010895F894FFCF3C
:10490A000201000304050607070605000102030465
:10491A000001020304050607010102030405060655
:10492A000202030304040505030303030404040445
:08493A005447001401000000C5
:00000001FF
